{
	"data": {
		"bytecode": {
			"linkReferences": {},
			"object": "6080604052348015600e575f5ffd5b50611ee98061001c5f395ff3fe608060405234801561000f575f5ffd5b506004361061007b575f3560e01c806380e15ad41161005957806380e15ad4146100f457806391c4fb8214610110578063b8840d3d1461012c578063fca5e61e146101605761007b565b806325ad876c1461007f5780635425c289146100b35780637577ca37146100d6575b5f5ffd5b610099600480360381019061009491906111c9565b610195565b6040516100aa9594939291906114fa565b60405180910390f35b6100bb610662565b6040516100cd96959493929190611625565b60405180910390f35b6100de610b2a565b6040516100eb91906116bd565b60405180910390f35b61010e60048036038101906101099190611723565b610b30565b005b61012a6004803603810190610125919061189f565b610c66565b005b61014660048036038101906101419190611927565b610ddd565b6040516101579594939291906119b8565b60405180910390f35b61017a60048036038101906101759190611927565b610ff0565b60405161018c96959493929190611a17565b60405180910390f35b60608060608060605f5f90505f600190505b6001548111610237578773ffffffffffffffffffffffffffffffffffffffff165f5f8381526020019081526020015f206003015f9054906101000a900473ffffffffffffffffffffffffffffffffffffffff1673ffffffffffffffffffffffffffffffffffffffff160361022457818061022090611ab1565b9250505b808061022f90611ab1565b9150506101a7565b508067ffffffffffffffff8111156102525761025161177b565b5b6040519080825280602002602001820160405280156102805781602001602082028036833780820191505090505b5095508067ffffffffffffffff81111561029d5761029c61177b565b5b6040519080825280602002602001820160405280156102d057816020015b60608152602001906001900390816102bb5790505b5094508067ffffffffffffffff8111156102ed576102ec61177b565b5b60405190808252806020026020018201604052801561032057816020015b606081526020019060019003908161030b5790505b5093508067ffffffffffffffff81111561033d5761033c61177b565b5b60405190808252806020026020018201604052801561036b5781602001602082028036833780820191505090505b5092508067ffffffffffffffff8111156103885761038761177b565b5b6040519080825280602002602001820160405280156103b65781602001602082028036833780820191505090505b5091505f5f90505f600190505b6001548111610656578873ffffffffffffffffffffffffffffffffffffffff165f5f8381526020019081526020015f206003015f9054906101000a900473ffffffffffffffffffffffffffffffffffffffff1673ffffffffffffffffffffffffffffffffffffffff1603610643575f5f5f8381526020019081526020015f209050805f015489848151811061045b5761045a611af8565b5b60200260200101818152505080600101805461047690611b52565b80601f01602080910402602001604051908101604052809291908181526020018280546104a290611b52565b80156104ed5780601f106104c4576101008083540402835291602001916104ed565b820191905f5260205f20905b8154815290600101906020018083116104d057829003601f168201915b505050505088848151811061050557610504611af8565b5b602002602001018190525080600201805461051f90611b52565b80601f016020809104026020016040519081016040528092919081815260200182805461054b90611b52565b80156105965780601f1061056d57610100808354040283529160200191610596565b820191905f5260205f20905b81548152906001019060200180831161057957829003601f168201915b50505050508784815181106105ae576105ad611af8565b5b602002602001018190525080600401548684815181106105d1576105d0611af8565b5b602002602001018181525050806005015f9054906101000a900460ff1685848151811061060157610600611af8565b5b6020026020010190600381111561061b5761061a611408565b5b9081600381111561062f5761062e611408565b5b81525050828061063e90611ab1565b935050505b808061064e90611ab1565b9150506103c3565b50505091939590929450565b60608060608060608060015467ffffffffffffffff8111156106875761068661177b565b5b6040519080825280602002602001820160405280156106b55781602001602082028036833780820191505090505b50955060015467ffffffffffffffff8111156106d4576106d361177b565b5b60405190808252806020026020018201604052801561070757816020015b60608152602001906001900390816106f25790505b50945060015467ffffffffffffffff8111156107265761072561177b565b5b60405190808252806020026020018201604052801561075957816020015b60608152602001906001900390816107445790505b50935060015467ffffffffffffffff8111156107785761077761177b565b5b6040519080825280602002602001820160405280156107a65781602001602082028036833780820191505090505b50925060015467ffffffffffffffff8111156107c5576107c461177b565b5b6040519080825280602002602001820160405280156107f35781602001602082028036833780820191505090505b50915060015467ffffffffffffffff8111156108125761081161177b565b5b6040519080825280602002602001820160405280156108405781602001602082028036833780820191505090505b5090505f600190505b6001548111610b21575f5f5f8381526020019081526020015f209050805f0154886001846108779190611b82565b8151811061088857610887611af8565b5b6020026020010181815250508060010180546108a390611b52565b80601f01602080910402602001604051908101604052809291908181526020018280546108cf90611b52565b801561091a5780601f106108f15761010080835404028352916020019161091a565b820191905f5260205f20905b8154815290600101906020018083116108fd57829003601f168201915b50505050508760018461092d9190611b82565b8151811061093e5761093d611af8565b5b602002602001018190525080600201805461095890611b52565b80601f016020809104026020016040519081016040528092919081815260200182805461098490611b52565b80156109cf5780601f106109a6576101008083540402835291602001916109cf565b820191905f5260205f20905b8154815290600101906020018083116109b257829003601f168201915b5050505050866001846109e29190611b82565b815181106109f3576109f2611af8565b5b6020026020010181905250806004015485600184610a119190611b82565b81518110610a2257610a21611af8565b5b602002602001018181525050806005015f9054906101000a900460ff1684600184610a4d9190611b82565b81518110610a5e57610a5d611af8565b5b60200260200101906003811115610a7857610a77611408565b5b90816003811115610a8c57610a8b611408565b5b81525050806003015f9054906101000a900473ffffffffffffffffffffffffffffffffffffffff1683600184610ac29190611b82565b81518110610ad357610ad2611af8565b5b602002602001019073ffffffffffffffffffffffffffffffffffffffff16908173ffffffffffffffffffffffffffffffffffffffff1681525050508080610b1990611ab1565b915050610849565b50909192939495565b60015481565b5f5f5f8581526020019081526020015f209050806005015f9054906101000a900460ff166003811115610b6657610b65611408565b5b836003811115610b7957610b78611408565b5b11610bb9576040517f08c379a0000000000000000000000000000000000000000000000000000000008152600401610bb090611bff565b60405180910390fd5b82816005015f6101000a81548160ff02191690836003811115610bdf57610bde611408565b5b021790555081816003015f6101000a81548173ffffffffffffffffffffffffffffffffffffffff021916908373ffffffffffffffffffffffffffffffffffffffff160217905550837fc50d274aa09e67f4ac198ad0cd460d820e39a72eb41bcb8d6b05314d9ea604568484604051610c58929190611c1d565b60405180910390a250505050565b60015f815480929190610c7890611ab1565b91905055506040518060c0016040528060015481526020018481526020018381526020013373ffffffffffffffffffffffffffffffffffffffff1681526020018281526020015f6003811115610cd157610cd0611408565b5b8152505f5f60015481526020019081526020015f205f820151815f01556020820151816001019081610d039190611de4565b506040820151816002019081610d199190611de4565b506060820151816003015f6101000a81548173ffffffffffffffffffffffffffffffffffffffff021916908373ffffffffffffffffffffffffffffffffffffffff1602179055506080820151816004015560a0820151816005015f6101000a81548160ff02191690836003811115610d9457610d93611408565b5b02179055509050506001547fc50d274aa09e67f4ac198ad0cd460d820e39a72eb41bcb8d6b05314d9ea604565f33604051610dd0929190611c1d565b60405180910390a2505050565b6060805f5f5f5f5f5f8881526020019081526020015f206040518060c00160405290815f8201548152602001600182018054610e1890611b52565b80601f0160208091040260200160405190810160405280929190818152602001828054610e4490611b52565b8015610e8f5780601f10610e6657610100808354040283529160200191610e8f565b820191905f5260205f20905b815481529060010190602001808311610e7257829003601f168201915b50505050508152602001600282018054610ea890611b52565b80601f0160208091040260200160405190810160405280929190818152602001828054610ed490611b52565b8015610f1f5780601f10610ef657610100808354040283529160200191610f1f565b820191905f5260205f20905b815481529060010190602001808311610f0257829003601f168201915b50505050508152602001600382015f9054906101000a900473ffffffffffffffffffffffffffffffffffffffff1673ffffffffffffffffffffffffffffffffffffffff1673ffffffffffffffffffffffffffffffffffffffff16815260200160048201548152602001600582015f9054906101000a900460ff166003811115610fab57610faa611408565b5b6003811115610fbd57610fbc611408565b5b81525050905080602001518160400151826060015183608001518460a00151955095509550955095505091939590929450565b5f602052805f5260405f205f91509050805f01549080600101805461101490611b52565b80601f016020809104026020016040519081016040528092919081815260200182805461104090611b52565b801561108b5780601f106110625761010080835404028352916020019161108b565b820191905f5260205f20905b81548152906001019060200180831161106e57829003601f168201915b5050505050908060020180546110a090611b52565b80601f01602080910402602001604051908101604052809291908181526020018280546110cc90611b52565b80156111175780601f106110ee57610100808354040283529160200191611117565b820191905f5260205f20905b8154815290600101906020018083116110fa57829003601f168201915b505050505090806003015f9054906101000a900473ffffffffffffffffffffffffffffffffffffffff1690806004015490806005015f9054906101000a900460ff16905086565b5f604051905090565b5f5ffd5b5f5ffd5b5f73ffffffffffffffffffffffffffffffffffffffff82169050919050565b5f6111988261116f565b9050919050565b6111a88161118e565b81146111b2575f5ffd5b50565b5f813590506111c38161119f565b92915050565b5f602082840312156111de576111dd611167565b5b5f6111eb848285016111b5565b91505092915050565b5f81519050919050565b5f82825260208201905092915050565b5f819050602082019050919050565b5f819050919050565b61122f8161121d565b82525050565b5f6112408383611226565b60208301905092915050565b5f602082019050919050565b5f611262826111f4565b61126c81856111fe565b93506112778361120e565b805f5b838110156112a757815161128e8882611235565b97506112998361124c565b92505060018101905061127a565b5085935050505092915050565b5f81519050919050565b5f82825260208201905092915050565b5f819050602082019050919050565b5f81519050919050565b5f82825260208201905092915050565b8281835e5f83830152505050565b5f601f19601f8301169050919050565b5f61131f826112dd565b61132981856112e7565b93506113398185602086016112f7565b61134281611305565b840191505092915050565b5f6113588383611315565b905092915050565b5f602082019050919050565b5f611376826112b4565b61138081856112be565b935083602082028501611392856112ce565b805f5b858110156113cd57848403895281516113ae858261134d565b94506113b983611360565b925060208a01995050600181019050611395565b50829750879550505050505092915050565b5f81519050919050565b5f82825260208201905092915050565b5f819050602082019050919050565b7f4e487b71000000000000000000000000000000000000000000000000000000005f52602160045260245ffd5b6004811061144657611445611408565b5b50565b5f81905061145682611435565b919050565b5f61146582611449565b9050919050565b6114758161145b565b82525050565b5f611486838361146c565b60208301905092915050565b5f602082019050919050565b5f6114a8826113df565b6114b281856113e9565b93506114bd836113f9565b805f5b838110156114ed5781516114d4888261147b565b97506114df83611492565b9250506001810190506114c0565b5085935050505092915050565b5f60a0820190508181035f8301526115128188611258565b90508181036020830152611526818761136c565b9050818103604083015261153a818661136c565b9050818103606083015261154e8185611258565b90508181036080830152611562818461149e565b90509695505050505050565b5f81519050919050565b5f82825260208201905092915050565b5f819050602082019050919050565b6115a08161118e565b82525050565b5f6115b18383611597565b60208301905092915050565b5f602082019050919050565b5f6115d38261156e565b6115dd8185611578565b93506115e883611588565b805f5b838110156116185781516115ff88826115a6565b975061160a836115bd565b9250506001810190506115eb565b5085935050505092915050565b5f60c0820190508181035f83015261163d8189611258565b90508181036020830152611651818861136c565b90508181036040830152611665818761136c565b905081810360608301526116798186611258565b9050818103608083015261168d818561149e565b905081810360a08301526116a181846115c9565b9050979650505050505050565b6116b78161121d565b82525050565b5f6020820190506116d05f8301846116ae565b92915050565b6116df8161121d565b81146116e9575f5ffd5b50565b5f813590506116fa816116d6565b92915050565b6004811061170c575f5ffd5b50565b5f8135905061171d81611700565b92915050565b5f5f5f6060848603121561173a57611739611167565b5b5f611747868287016116ec565b93505060206117588682870161170f565b9250506040611769868287016111b5565b9150509250925092565b5f5ffd5b5f5ffd5b7f4e487b71000000000000000000000000000000000000000000000000000000005f52604160045260245ffd5b6117b182611305565b810181811067ffffffffffffffff821117156117d0576117cf61177b565b5b80604052505050565b5f6117e261115e565b90506117ee82826117a8565b919050565b5f67ffffffffffffffff82111561180d5761180c61177b565b5b61181682611305565b9050602081019050919050565b828183375f83830152505050565b5f61184361183e846117f3565b6117d9565b90508281526020810184848401111561185f5761185e611777565b5b61186a848285611823565b509392505050565b5f82601f83011261188657611885611773565b5b8135611896848260208601611831565b91505092915050565b5f5f5f606084860312156118b6576118b5611167565b5b5f84013567ffffffffffffffff8111156118d3576118d261116b565b5b6118df86828701611872565b935050602084013567ffffffffffffffff811115611900576118ff61116b565b5b61190c86828701611872565b925050604061191d868287016116ec565b9150509250925092565b5f6020828403121561193c5761193b611167565b5b5f611949848285016116ec565b91505092915050565b5f82825260208201905092915050565b5f61196c826112dd565b6119768185611952565b93506119868185602086016112f7565b61198f81611305565b840191505092915050565b6119a38161118e565b82525050565b6119b28161145b565b82525050565b5f60a0820190508181035f8301526119d08188611962565b905081810360208301526119e48187611962565b90506119f3604083018661199a565b611a0060608301856116ae565b611a0d60808301846119a9565b9695505050505050565b5f60c082019050611a2a5f8301896116ae565b8181036020830152611a3c8188611962565b90508181036040830152611a508187611962565b9050611a5f606083018661199a565b611a6c60808301856116ae565b611a7960a08301846119a9565b979650505050505050565b7f4e487b71000000000000000000000000000000000000000000000000000000005f52601160045260245ffd5b5f611abb8261121d565b91507fffffffffffffffffffffffffffffffffffffffffffffffffffffffffffffffff8203611aed57611aec611a84565b5b600182019050919050565b7f4e487b71000000000000000000000000000000000000000000000000000000005f52603260045260245ffd5b7f4e487b71000000000000000000000000000000000000000000000000000000005f52602260045260245ffd5b5f6002820490506001821680611b6957607f821691505b602082108103611b7c57611b7b611b25565b5b50919050565b5f611b8c8261121d565b9150611b978361121d565b9250828203905081811115611baf57611bae611a84565b5b92915050565b7f496e76616c6964207374616765207472616e736974696f6e00000000000000005f82015250565b5f611be9601883611952565b9150611bf482611bb5565b602082019050919050565b5f6020820190508181035f830152611c1681611bdd565b9050919050565b5f604082019050611c305f8301856119a9565b611c3d602083018461199a565b9392505050565b5f819050815f5260205f209050919050565b5f6020601f8301049050919050565b5f82821b905092915050565b5f60088302611ca07fffffffffffffffffffffffffffffffffffffffffffffffffffffffffffffffff82611c65565b611caa8683611c65565b95508019841693508086168417925050509392505050565b5f819050919050565b5f611ce5611ce0611cdb8461121d565b611cc2565b61121d565b9050919050565b5f819050919050565b611cfe83611ccb565b611d12611d0a82611cec565b848454611c71565b825550505050565b5f5f905090565b611d29611d1a565b611d34818484611cf5565b505050565b5b81811015611d5757611d4c5f82611d21565b600181019050611d3a565b5050565b601f821115611d9c57611d6d81611c44565b611d7684611c56565b81016020851015611d85578190505b611d99611d9185611c56565b830182611d39565b50505b505050565b5f82821c905092915050565b5f611dbc5f1984600802611da1565b1980831691505092915050565b5f611dd48383611dad565b9150826002028217905092915050565b611ded826112dd565b67ffffffffffffffff811115611e0657611e0561177b565b5b611e108254611b52565b611e1b828285611d5b565b5f60209050601f831160018114611e4c575f8415611e3a578287015190505b611e448582611dc9565b865550611eab565b601f198416611e5a86611c44565b5f5b82811015611e8157848901518255600182019150602085019450602081019050611e5c565b86831015611e9e5784890151611e9a601f891682611dad565b8355505b6001600288020188555050505b50505050505056fea264697066735822122074e4c5f7ce15d58f05ca6a6331c8f0f7d61853b6822d2c7baee4a068383e712364736f6c634300081e0033",
			"opcodes": "PUSH1 0x80 PUSH1 0x40 MSTORE CALLVALUE DUP1 ISZERO PUSH1 0xE JUMPI PUSH0 PUSH0 REVERT JUMPDEST POP PUSH2 0x1EE9 DUP1 PUSH2 0x1C PUSH0 CODECOPY PUSH0 RETURN INVALID PUSH1 0x80 PUSH1 0x40 MSTORE CALLVALUE DUP1 ISZERO PUSH2 0xF JUMPI PUSH0 PUSH0 REVERT JUMPDEST POP PUSH1 0x4 CALLDATASIZE LT PUSH2 0x7B JUMPI PUSH0 CALLDATALOAD PUSH1 0xE0 SHR DUP1 PUSH4 0x80E15AD4 GT PUSH2 0x59 JUMPI DUP1 PUSH4 0x80E15AD4 EQ PUSH2 0xF4 JUMPI DUP1 PUSH4 0x91C4FB82 EQ PUSH2 0x110 JUMPI DUP1 PUSH4 0xB8840D3D EQ PUSH2 0x12C JUMPI DUP1 PUSH4 0xFCA5E61E EQ PUSH2 0x160 JUMPI PUSH2 0x7B JUMP JUMPDEST DUP1 PUSH4 0x25AD876C EQ PUSH2 0x7F JUMPI DUP1 PUSH4 0x5425C289 EQ PUSH2 0xB3 JUMPI DUP1 PUSH4 0x7577CA37 EQ PUSH2 0xD6 JUMPI JUMPDEST PUSH0 PUSH0 REVERT JUMPDEST PUSH2 0x99 PUSH1 0x4 DUP1 CALLDATASIZE SUB DUP2 ADD SWAP1 PUSH2 0x94 SWAP2 SWAP1 PUSH2 0x11C9 JUMP JUMPDEST PUSH2 0x195 JUMP JUMPDEST PUSH1 0x40 MLOAD PUSH2 0xAA SWAP6 SWAP5 SWAP4 SWAP3 SWAP2 SWAP1 PUSH2 0x14FA JUMP JUMPDEST PUSH1 0x40 MLOAD DUP1 SWAP2 SUB SWAP1 RETURN JUMPDEST PUSH2 0xBB PUSH2 0x662 JUMP JUMPDEST PUSH1 0x40 MLOAD PUSH2 0xCD SWAP7 SWAP6 SWAP5 SWAP4 SWAP3 SWAP2 SWAP1 PUSH2 0x1625 JUMP JUMPDEST PUSH1 0x40 MLOAD DUP1 SWAP2 SUB SWAP1 RETURN JUMPDEST PUSH2 0xDE PUSH2 0xB2A JUMP JUMPDEST PUSH1 0x40 MLOAD PUSH2 0xEB SWAP2 SWAP1 PUSH2 0x16BD JUMP JUMPDEST PUSH1 0x40 MLOAD DUP1 SWAP2 SUB SWAP1 RETURN JUMPDEST PUSH2 0x10E PUSH1 0x4 DUP1 CALLDATASIZE SUB DUP2 ADD SWAP1 PUSH2 0x109 SWAP2 SWAP1 PUSH2 0x1723 JUMP JUMPDEST PUSH2 0xB30 JUMP JUMPDEST STOP JUMPDEST PUSH2 0x12A PUSH1 0x4 DUP1 CALLDATASIZE SUB DUP2 ADD SWAP1 PUSH2 0x125 SWAP2 SWAP1 PUSH2 0x189F JUMP JUMPDEST PUSH2 0xC66 JUMP JUMPDEST STOP JUMPDEST PUSH2 0x146 PUSH1 0x4 DUP1 CALLDATASIZE SUB DUP2 ADD SWAP1 PUSH2 0x141 SWAP2 SWAP1 PUSH2 0x1927 JUMP JUMPDEST PUSH2 0xDDD JUMP JUMPDEST PUSH1 0x40 MLOAD PUSH2 0x157 SWAP6 SWAP5 SWAP4 SWAP3 SWAP2 SWAP1 PUSH2 0x19B8 JUMP JUMPDEST PUSH1 0x40 MLOAD DUP1 SWAP2 SUB SWAP1 RETURN JUMPDEST PUSH2 0x17A PUSH1 0x4 DUP1 CALLDATASIZE SUB DUP2 ADD SWAP1 PUSH2 0x175 SWAP2 SWAP1 PUSH2 0x1927 JUMP JUMPDEST PUSH2 0xFF0 JUMP JUMPDEST PUSH1 0x40 MLOAD PUSH2 0x18C SWAP7 SWAP6 SWAP5 SWAP4 SWAP3 SWAP2 SWAP1 PUSH2 0x1A17 JUMP JUMPDEST PUSH1 0x40 MLOAD DUP1 SWAP2 SUB SWAP1 RETURN JUMPDEST PUSH1 0x60 DUP1 PUSH1 0x60 DUP1 PUSH1 0x60 PUSH0 PUSH0 SWAP1 POP PUSH0 PUSH1 0x1 SWAP1 POP JUMPDEST PUSH1 0x1 SLOAD DUP2 GT PUSH2 0x237 JUMPI DUP8 PUSH20 0xFFFFFFFFFFFFFFFFFFFFFFFFFFFFFFFFFFFFFFFF AND PUSH0 PUSH0 DUP4 DUP2 MSTORE PUSH1 0x20 ADD SWAP1 DUP2 MSTORE PUSH1 0x20 ADD PUSH0 KECCAK256 PUSH1 0x3 ADD PUSH0 SWAP1 SLOAD SWAP1 PUSH2 0x100 EXP SWAP1 DIV PUSH20 0xFFFFFFFFFFFFFFFFFFFFFFFFFFFFFFFFFFFFFFFF AND PUSH20 0xFFFFFFFFFFFFFFFFFFFFFFFFFFFFFFFFFFFFFFFF AND SUB PUSH2 0x224 JUMPI DUP2 DUP1 PUSH2 0x220 SWAP1 PUSH2 0x1AB1 JUMP JUMPDEST SWAP3 POP POP JUMPDEST DUP1 DUP1 PUSH2 0x22F SWAP1 PUSH2 0x1AB1 JUMP JUMPDEST SWAP2 POP POP PUSH2 0x1A7 JUMP JUMPDEST POP DUP1 PUSH8 0xFFFFFFFFFFFFFFFF DUP2 GT ISZERO PUSH2 0x252 JUMPI PUSH2 0x251 PUSH2 0x177B JUMP JUMPDEST JUMPDEST PUSH1 0x40 MLOAD SWAP1 DUP1 DUP3 MSTORE DUP1 PUSH1 0x20 MUL PUSH1 0x20 ADD DUP3 ADD PUSH1 0x40 MSTORE DUP1 ISZERO PUSH2 0x280 JUMPI DUP2 PUSH1 0x20 ADD PUSH1 0x20 DUP3 MUL DUP1 CALLDATASIZE DUP4 CALLDATACOPY DUP1 DUP3 ADD SWAP2 POP POP SWAP1 POP JUMPDEST POP SWAP6 POP DUP1 PUSH8 0xFFFFFFFFFFFFFFFF DUP2 GT ISZERO PUSH2 0x29D JUMPI PUSH2 0x29C PUSH2 0x177B JUMP JUMPDEST JUMPDEST PUSH1 0x40 MLOAD SWAP1 DUP1 DUP3 MSTORE DUP1 PUSH1 0x20 MUL PUSH1 0x20 ADD DUP3 ADD PUSH1 0x40 MSTORE DUP1 ISZERO PUSH2 0x2D0 JUMPI DUP2 PUSH1 0x20 ADD JUMPDEST PUSH1 0x60 DUP2 MSTORE PUSH1 0x20 ADD SWAP1 PUSH1 0x1 SWAP1 SUB SWAP1 DUP2 PUSH2 0x2BB JUMPI SWAP1 POP JUMPDEST POP SWAP5 POP DUP1 PUSH8 0xFFFFFFFFFFFFFFFF DUP2 GT ISZERO PUSH2 0x2ED JUMPI PUSH2 0x2EC PUSH2 0x177B JUMP JUMPDEST JUMPDEST PUSH1 0x40 MLOAD SWAP1 DUP1 DUP3 MSTORE DUP1 PUSH1 0x20 MUL PUSH1 0x20 ADD DUP3 ADD PUSH1 0x40 MSTORE DUP1 ISZERO PUSH2 0x320 JUMPI DUP2 PUSH1 0x20 ADD JUMPDEST PUSH1 0x60 DUP2 MSTORE PUSH1 0x20 ADD SWAP1 PUSH1 0x1 SWAP1 SUB SWAP1 DUP2 PUSH2 0x30B JUMPI SWAP1 POP JUMPDEST POP SWAP4 POP DUP1 PUSH8 0xFFFFFFFFFFFFFFFF DUP2 GT ISZERO PUSH2 0x33D JUMPI PUSH2 0x33C PUSH2 0x177B JUMP JUMPDEST JUMPDEST PUSH1 0x40 MLOAD SWAP1 DUP1 DUP3 MSTORE DUP1 PUSH1 0x20 MUL PUSH1 0x20 ADD DUP3 ADD PUSH1 0x40 MSTORE DUP1 ISZERO PUSH2 0x36B JUMPI DUP2 PUSH1 0x20 ADD PUSH1 0x20 DUP3 MUL DUP1 CALLDATASIZE DUP4 CALLDATACOPY DUP1 DUP3 ADD SWAP2 POP POP SWAP1 POP JUMPDEST POP SWAP3 POP DUP1 PUSH8 0xFFFFFFFFFFFFFFFF DUP2 GT ISZERO PUSH2 0x388 JUMPI PUSH2 0x387 PUSH2 0x177B JUMP JUMPDEST JUMPDEST PUSH1 0x40 MLOAD SWAP1 DUP1 DUP3 MSTORE DUP1 PUSH1 0x20 MUL PUSH1 0x20 ADD DUP3 ADD PUSH1 0x40 MSTORE DUP1 ISZERO PUSH2 0x3B6 JUMPI DUP2 PUSH1 0x20 ADD PUSH1 0x20 DUP3 MUL DUP1 CALLDATASIZE DUP4 CALLDATACOPY DUP1 DUP3 ADD SWAP2 POP POP SWAP1 POP JUMPDEST POP SWAP2 POP PUSH0 PUSH0 SWAP1 POP PUSH0 PUSH1 0x1 SWAP1 POP JUMPDEST PUSH1 0x1 SLOAD DUP2 GT PUSH2 0x656 JUMPI DUP9 PUSH20 0xFFFFFFFFFFFFFFFFFFFFFFFFFFFFFFFFFFFFFFFF AND PUSH0 PUSH0 DUP4 DUP2 MSTORE PUSH1 0x20 ADD SWAP1 DUP2 MSTORE PUSH1 0x20 ADD PUSH0 KECCAK256 PUSH1 0x3 ADD PUSH0 SWAP1 SLOAD SWAP1 PUSH2 0x100 EXP SWAP1 DIV PUSH20 0xFFFFFFFFFFFFFFFFFFFFFFFFFFFFFFFFFFFFFFFF AND PUSH20 0xFFFFFFFFFFFFFFFFFFFFFFFFFFFFFFFFFFFFFFFF AND SUB PUSH2 0x643 JUMPI PUSH0 PUSH0 PUSH0 DUP4 DUP2 MSTORE PUSH1 0x20 ADD SWAP1 DUP2 MSTORE PUSH1 0x20 ADD PUSH0 KECCAK256 SWAP1 POP DUP1 PUSH0 ADD SLOAD DUP10 DUP5 DUP2 MLOAD DUP2 LT PUSH2 0x45B JUMPI PUSH2 0x45A PUSH2 0x1AF8 JUMP JUMPDEST JUMPDEST PUSH1 0x20 MUL PUSH1 0x20 ADD ADD DUP2 DUP2 MSTORE POP POP DUP1 PUSH1 0x1 ADD DUP1 SLOAD PUSH2 0x476 SWAP1 PUSH2 0x1B52 JUMP JUMPDEST DUP1 PUSH1 0x1F ADD PUSH1 0x20 DUP1 SWAP2 DIV MUL PUSH1 0x20 ADD PUSH1 0x40 MLOAD SWAP1 DUP2 ADD PUSH1 0x40 MSTORE DUP1 SWAP3 SWAP2 SWAP1 DUP2 DUP2 MSTORE PUSH1 0x20 ADD DUP3 DUP1 SLOAD PUSH2 0x4A2 SWAP1 PUSH2 0x1B52 JUMP JUMPDEST DUP1 ISZERO PUSH2 0x4ED JUMPI DUP1 PUSH1 0x1F LT PUSH2 0x4C4 JUMPI PUSH2 0x100 DUP1 DUP4 SLOAD DIV MUL DUP4 MSTORE SWAP2 PUSH1 0x20 ADD SWAP2 PUSH2 0x4ED JUMP JUMPDEST DUP3 ADD SWAP2 SWAP1 PUSH0 MSTORE PUSH1 0x20 PUSH0 KECCAK256 SWAP1 JUMPDEST DUP2 SLOAD DUP2 MSTORE SWAP1 PUSH1 0x1 ADD SWAP1 PUSH1 0x20 ADD DUP1 DUP4 GT PUSH2 0x4D0 JUMPI DUP3 SWAP1 SUB PUSH1 0x1F AND DUP3 ADD SWAP2 JUMPDEST POP POP POP POP POP DUP9 DUP5 DUP2 MLOAD DUP2 LT PUSH2 0x505 JUMPI PUSH2 0x504 PUSH2 0x1AF8 JUMP JUMPDEST JUMPDEST PUSH1 0x20 MUL PUSH1 0x20 ADD ADD DUP2 SWAP1 MSTORE POP DUP1 PUSH1 0x2 ADD DUP1 SLOAD PUSH2 0x51F SWAP1 PUSH2 0x1B52 JUMP JUMPDEST DUP1 PUSH1 0x1F ADD PUSH1 0x20 DUP1 SWAP2 DIV MUL PUSH1 0x20 ADD PUSH1 0x40 MLOAD SWAP1 DUP2 ADD PUSH1 0x40 MSTORE DUP1 SWAP3 SWAP2 SWAP1 DUP2 DUP2 MSTORE PUSH1 0x20 ADD DUP3 DUP1 SLOAD PUSH2 0x54B SWAP1 PUSH2 0x1B52 JUMP JUMPDEST DUP1 ISZERO PUSH2 0x596 JUMPI DUP1 PUSH1 0x1F LT PUSH2 0x56D JUMPI PUSH2 0x100 DUP1 DUP4 SLOAD DIV MUL DUP4 MSTORE SWAP2 PUSH1 0x20 ADD SWAP2 PUSH2 0x596 JUMP JUMPDEST DUP3 ADD SWAP2 SWAP1 PUSH0 MSTORE PUSH1 0x20 PUSH0 KECCAK256 SWAP1 JUMPDEST DUP2 SLOAD DUP2 MSTORE SWAP1 PUSH1 0x1 ADD SWAP1 PUSH1 0x20 ADD DUP1 DUP4 GT PUSH2 0x579 JUMPI DUP3 SWAP1 SUB PUSH1 0x1F AND DUP3 ADD SWAP2 JUMPDEST POP POP POP POP POP DUP8 DUP5 DUP2 MLOAD DUP2 LT PUSH2 0x5AE JUMPI PUSH2 0x5AD PUSH2 0x1AF8 JUMP JUMPDEST JUMPDEST PUSH1 0x20 MUL PUSH1 0x20 ADD ADD DUP2 SWAP1 MSTORE POP DUP1 PUSH1 0x4 ADD SLOAD DUP7 DUP5 DUP2 MLOAD DUP2 LT PUSH2 0x5D1 JUMPI PUSH2 0x5D0 PUSH2 0x1AF8 JUMP JUMPDEST JUMPDEST PUSH1 0x20 MUL PUSH1 0x20 ADD ADD DUP2 DUP2 MSTORE POP POP DUP1 PUSH1 0x5 ADD PUSH0 SWAP1 SLOAD SWAP1 PUSH2 0x100 EXP SWAP1 DIV PUSH1 0xFF AND DUP6 DUP5 DUP2 MLOAD DUP2 LT PUSH2 0x601 JUMPI PUSH2 0x600 PUSH2 0x1AF8 JUMP JUMPDEST JUMPDEST PUSH1 0x20 MUL PUSH1 0x20 ADD ADD SWAP1 PUSH1 0x3 DUP2 GT ISZERO PUSH2 0x61B JUMPI PUSH2 0x61A PUSH2 0x1408 JUMP JUMPDEST JUMPDEST SWAP1 DUP2 PUSH1 0x3 DUP2 GT ISZERO PUSH2 0x62F JUMPI PUSH2 0x62E PUSH2 0x1408 JUMP JUMPDEST JUMPDEST DUP2 MSTORE POP POP DUP3 DUP1 PUSH2 0x63E SWAP1 PUSH2 0x1AB1 JUMP JUMPDEST SWAP4 POP POP POP JUMPDEST DUP1 DUP1 PUSH2 0x64E SWAP1 PUSH2 0x1AB1 JUMP JUMPDEST SWAP2 POP POP PUSH2 0x3C3 JUMP JUMPDEST POP POP POP SWAP2 SWAP4 SWAP6 SWAP1 SWAP3 SWAP5 POP JUMP JUMPDEST PUSH1 0x60 DUP1 PUSH1 0x60 DUP1 PUSH1 0x60 DUP1 PUSH1 0x1 SLOAD PUSH8 0xFFFFFFFFFFFFFFFF DUP2 GT ISZERO PUSH2 0x687 JUMPI PUSH2 0x686 PUSH2 0x177B JUMP JUMPDEST JUMPDEST PUSH1 0x40 MLOAD SWAP1 DUP1 DUP3 MSTORE DUP1 PUSH1 0x20 MUL PUSH1 0x20 ADD DUP3 ADD PUSH1 0x40 MSTORE DUP1 ISZERO PUSH2 0x6B5 JUMPI DUP2 PUSH1 0x20 ADD PUSH1 0x20 DUP3 MUL DUP1 CALLDATASIZE DUP4 CALLDATACOPY DUP1 DUP3 ADD SWAP2 POP POP SWAP1 POP JUMPDEST POP SWAP6 POP PUSH1 0x1 SLOAD PUSH8 0xFFFFFFFFFFFFFFFF DUP2 GT ISZERO PUSH2 0x6D4 JUMPI PUSH2 0x6D3 PUSH2 0x177B JUMP JUMPDEST JUMPDEST PUSH1 0x40 MLOAD SWAP1 DUP1 DUP3 MSTORE DUP1 PUSH1 0x20 MUL PUSH1 0x20 ADD DUP3 ADD PUSH1 0x40 MSTORE DUP1 ISZERO PUSH2 0x707 JUMPI DUP2 PUSH1 0x20 ADD JUMPDEST PUSH1 0x60 DUP2 MSTORE PUSH1 0x20 ADD SWAP1 PUSH1 0x1 SWAP1 SUB SWAP1 DUP2 PUSH2 0x6F2 JUMPI SWAP1 POP JUMPDEST POP SWAP5 POP PUSH1 0x1 SLOAD PUSH8 0xFFFFFFFFFFFFFFFF DUP2 GT ISZERO PUSH2 0x726 JUMPI PUSH2 0x725 PUSH2 0x177B JUMP JUMPDEST JUMPDEST PUSH1 0x40 MLOAD SWAP1 DUP1 DUP3 MSTORE DUP1 PUSH1 0x20 MUL PUSH1 0x20 ADD DUP3 ADD PUSH1 0x40 MSTORE DUP1 ISZERO PUSH2 0x759 JUMPI DUP2 PUSH1 0x20 ADD JUMPDEST PUSH1 0x60 DUP2 MSTORE PUSH1 0x20 ADD SWAP1 PUSH1 0x1 SWAP1 SUB SWAP1 DUP2 PUSH2 0x744 JUMPI SWAP1 POP JUMPDEST POP SWAP4 POP PUSH1 0x1 SLOAD PUSH8 0xFFFFFFFFFFFFFFFF DUP2 GT ISZERO PUSH2 0x778 JUMPI PUSH2 0x777 PUSH2 0x177B JUMP JUMPDEST JUMPDEST PUSH1 0x40 MLOAD SWAP1 DUP1 DUP3 MSTORE DUP1 PUSH1 0x20 MUL PUSH1 0x20 ADD DUP3 ADD PUSH1 0x40 MSTORE DUP1 ISZERO PUSH2 0x7A6 JUMPI DUP2 PUSH1 0x20 ADD PUSH1 0x20 DUP3 MUL DUP1 CALLDATASIZE DUP4 CALLDATACOPY DUP1 DUP3 ADD SWAP2 POP POP SWAP1 POP JUMPDEST POP SWAP3 POP PUSH1 0x1 SLOAD PUSH8 0xFFFFFFFFFFFFFFFF DUP2 GT ISZERO PUSH2 0x7C5 JUMPI PUSH2 0x7C4 PUSH2 0x177B JUMP JUMPDEST JUMPDEST PUSH1 0x40 MLOAD SWAP1 DUP1 DUP3 MSTORE DUP1 PUSH1 0x20 MUL PUSH1 0x20 ADD DUP3 ADD PUSH1 0x40 MSTORE DUP1 ISZERO PUSH2 0x7F3 JUMPI DUP2 PUSH1 0x20 ADD PUSH1 0x20 DUP3 MUL DUP1 CALLDATASIZE DUP4 CALLDATACOPY DUP1 DUP3 ADD SWAP2 POP POP SWAP1 POP JUMPDEST POP SWAP2 POP PUSH1 0x1 SLOAD PUSH8 0xFFFFFFFFFFFFFFFF DUP2 GT ISZERO PUSH2 0x812 JUMPI PUSH2 0x811 PUSH2 0x177B JUMP JUMPDEST JUMPDEST PUSH1 0x40 MLOAD SWAP1 DUP1 DUP3 MSTORE DUP1 PUSH1 0x20 MUL PUSH1 0x20 ADD DUP3 ADD PUSH1 0x40 MSTORE DUP1 ISZERO PUSH2 0x840 JUMPI DUP2 PUSH1 0x20 ADD PUSH1 0x20 DUP3 MUL DUP1 CALLDATASIZE DUP4 CALLDATACOPY DUP1 DUP3 ADD SWAP2 POP POP SWAP1 POP JUMPDEST POP SWAP1 POP PUSH0 PUSH1 0x1 SWAP1 POP JUMPDEST PUSH1 0x1 SLOAD DUP2 GT PUSH2 0xB21 JUMPI PUSH0 PUSH0 PUSH0 DUP4 DUP2 MSTORE PUSH1 0x20 ADD SWAP1 DUP2 MSTORE PUSH1 0x20 ADD PUSH0 KECCAK256 SWAP1 POP DUP1 PUSH0 ADD SLOAD DUP9 PUSH1 0x1 DUP5 PUSH2 0x877 SWAP2 SWAP1 PUSH2 0x1B82 JUMP JUMPDEST DUP2 MLOAD DUP2 LT PUSH2 0x888 JUMPI PUSH2 0x887 PUSH2 0x1AF8 JUMP JUMPDEST JUMPDEST PUSH1 0x20 MUL PUSH1 0x20 ADD ADD DUP2 DUP2 MSTORE POP POP DUP1 PUSH1 0x1 ADD DUP1 SLOAD PUSH2 0x8A3 SWAP1 PUSH2 0x1B52 JUMP JUMPDEST DUP1 PUSH1 0x1F ADD PUSH1 0x20 DUP1 SWAP2 DIV MUL PUSH1 0x20 ADD PUSH1 0x40 MLOAD SWAP1 DUP2 ADD PUSH1 0x40 MSTORE DUP1 SWAP3 SWAP2 SWAP1 DUP2 DUP2 MSTORE PUSH1 0x20 ADD DUP3 DUP1 SLOAD PUSH2 0x8CF SWAP1 PUSH2 0x1B52 JUMP JUMPDEST DUP1 ISZERO PUSH2 0x91A JUMPI DUP1 PUSH1 0x1F LT PUSH2 0x8F1 JUMPI PUSH2 0x100 DUP1 DUP4 SLOAD DIV MUL DUP4 MSTORE SWAP2 PUSH1 0x20 ADD SWAP2 PUSH2 0x91A JUMP JUMPDEST DUP3 ADD SWAP2 SWAP1 PUSH0 MSTORE PUSH1 0x20 PUSH0 KECCAK256 SWAP1 JUMPDEST DUP2 SLOAD DUP2 MSTORE SWAP1 PUSH1 0x1 ADD SWAP1 PUSH1 0x20 ADD DUP1 DUP4 GT PUSH2 0x8FD JUMPI DUP3 SWAP1 SUB PUSH1 0x1F AND DUP3 ADD SWAP2 JUMPDEST POP POP POP POP POP DUP8 PUSH1 0x1 DUP5 PUSH2 0x92D SWAP2 SWAP1 PUSH2 0x1B82 JUMP JUMPDEST DUP2 MLOAD DUP2 LT PUSH2 0x93E JUMPI PUSH2 0x93D PUSH2 0x1AF8 JUMP JUMPDEST JUMPDEST PUSH1 0x20 MUL PUSH1 0x20 ADD ADD DUP2 SWAP1 MSTORE POP DUP1 PUSH1 0x2 ADD DUP1 SLOAD PUSH2 0x958 SWAP1 PUSH2 0x1B52 JUMP JUMPDEST DUP1 PUSH1 0x1F ADD PUSH1 0x20 DUP1 SWAP2 DIV MUL PUSH1 0x20 ADD PUSH1 0x40 MLOAD SWAP1 DUP2 ADD PUSH1 0x40 MSTORE DUP1 SWAP3 SWAP2 SWAP1 DUP2 DUP2 MSTORE PUSH1 0x20 ADD DUP3 DUP1 SLOAD PUSH2 0x984 SWAP1 PUSH2 0x1B52 JUMP JUMPDEST DUP1 ISZERO PUSH2 0x9CF JUMPI DUP1 PUSH1 0x1F LT PUSH2 0x9A6 JUMPI PUSH2 0x100 DUP1 DUP4 SLOAD DIV MUL DUP4 MSTORE SWAP2 PUSH1 0x20 ADD SWAP2 PUSH2 0x9CF JUMP JUMPDEST DUP3 ADD SWAP2 SWAP1 PUSH0 MSTORE PUSH1 0x20 PUSH0 KECCAK256 SWAP1 JUMPDEST DUP2 SLOAD DUP2 MSTORE SWAP1 PUSH1 0x1 ADD SWAP1 PUSH1 0x20 ADD DUP1 DUP4 GT PUSH2 0x9B2 JUMPI DUP3 SWAP1 SUB PUSH1 0x1F AND DUP3 ADD SWAP2 JUMPDEST POP POP POP POP POP DUP7 PUSH1 0x1 DUP5 PUSH2 0x9E2 SWAP2 SWAP1 PUSH2 0x1B82 JUMP JUMPDEST DUP2 MLOAD DUP2 LT PUSH2 0x9F3 JUMPI PUSH2 0x9F2 PUSH2 0x1AF8 JUMP JUMPDEST JUMPDEST PUSH1 0x20 MUL PUSH1 0x20 ADD ADD DUP2 SWAP1 MSTORE POP DUP1 PUSH1 0x4 ADD SLOAD DUP6 PUSH1 0x1 DUP5 PUSH2 0xA11 SWAP2 SWAP1 PUSH2 0x1B82 JUMP JUMPDEST DUP2 MLOAD DUP2 LT PUSH2 0xA22 JUMPI PUSH2 0xA21 PUSH2 0x1AF8 JUMP JUMPDEST JUMPDEST PUSH1 0x20 MUL PUSH1 0x20 ADD ADD DUP2 DUP2 MSTORE POP POP DUP1 PUSH1 0x5 ADD PUSH0 SWAP1 SLOAD SWAP1 PUSH2 0x100 EXP SWAP1 DIV PUSH1 0xFF AND DUP5 PUSH1 0x1 DUP5 PUSH2 0xA4D SWAP2 SWAP1 PUSH2 0x1B82 JUMP JUMPDEST DUP2 MLOAD DUP2 LT PUSH2 0xA5E JUMPI PUSH2 0xA5D PUSH2 0x1AF8 JUMP JUMPDEST JUMPDEST PUSH1 0x20 MUL PUSH1 0x20 ADD ADD SWAP1 PUSH1 0x3 DUP2 GT ISZERO PUSH2 0xA78 JUMPI PUSH2 0xA77 PUSH2 0x1408 JUMP JUMPDEST JUMPDEST SWAP1 DUP2 PUSH1 0x3 DUP2 GT ISZERO PUSH2 0xA8C JUMPI PUSH2 0xA8B PUSH2 0x1408 JUMP JUMPDEST JUMPDEST DUP2 MSTORE POP POP DUP1 PUSH1 0x3 ADD PUSH0 SWAP1 SLOAD SWAP1 PUSH2 0x100 EXP SWAP1 DIV PUSH20 0xFFFFFFFFFFFFFFFFFFFFFFFFFFFFFFFFFFFFFFFF AND DUP4 PUSH1 0x1 DUP5 PUSH2 0xAC2 SWAP2 SWAP1 PUSH2 0x1B82 JUMP JUMPDEST DUP2 MLOAD DUP2 LT PUSH2 0xAD3 JUMPI PUSH2 0xAD2 PUSH2 0x1AF8 JUMP JUMPDEST JUMPDEST PUSH1 0x20 MUL PUSH1 0x20 ADD ADD SWAP1 PUSH20 0xFFFFFFFFFFFFFFFFFFFFFFFFFFFFFFFFFFFFFFFF AND SWAP1 DUP2 PUSH20 0xFFFFFFFFFFFFFFFFFFFFFFFFFFFFFFFFFFFFFFFF AND DUP2 MSTORE POP POP POP DUP1 DUP1 PUSH2 0xB19 SWAP1 PUSH2 0x1AB1 JUMP JUMPDEST SWAP2 POP POP PUSH2 0x849 JUMP JUMPDEST POP SWAP1 SWAP2 SWAP3 SWAP4 SWAP5 SWAP6 JUMP JUMPDEST PUSH1 0x1 SLOAD DUP2 JUMP JUMPDEST PUSH0 PUSH0 PUSH0 DUP6 DUP2 MSTORE PUSH1 0x20 ADD SWAP1 DUP2 MSTORE PUSH1 0x20 ADD PUSH0 KECCAK256 SWAP1 POP DUP1 PUSH1 0x5 ADD PUSH0 SWAP1 SLOAD SWAP1 PUSH2 0x100 EXP SWAP1 DIV PUSH1 0xFF AND PUSH1 0x3 DUP2 GT ISZERO PUSH2 0xB66 JUMPI PUSH2 0xB65 PUSH2 0x1408 JUMP JUMPDEST JUMPDEST DUP4 PUSH1 0x3 DUP2 GT ISZERO PUSH2 0xB79 JUMPI PUSH2 0xB78 PUSH2 0x1408 JUMP JUMPDEST JUMPDEST GT PUSH2 0xBB9 JUMPI PUSH1 0x40 MLOAD PUSH32 0x8C379A000000000000000000000000000000000000000000000000000000000 DUP2 MSTORE PUSH1 0x4 ADD PUSH2 0xBB0 SWAP1 PUSH2 0x1BFF JUMP JUMPDEST PUSH1 0x40 MLOAD DUP1 SWAP2 SUB SWAP1 REVERT JUMPDEST DUP3 DUP2 PUSH1 0x5 ADD PUSH0 PUSH2 0x100 EXP DUP2 SLOAD DUP2 PUSH1 0xFF MUL NOT AND SWAP1 DUP4 PUSH1 0x3 DUP2 GT ISZERO PUSH2 0xBDF JUMPI PUSH2 0xBDE PUSH2 0x1408 JUMP JUMPDEST JUMPDEST MUL OR SWAP1 SSTORE POP DUP2 DUP2 PUSH1 0x3 ADD PUSH0 PUSH2 0x100 EXP DUP2 SLOAD DUP2 PUSH20 0xFFFFFFFFFFFFFFFFFFFFFFFFFFFFFFFFFFFFFFFF MUL NOT AND SWAP1 DUP4 PUSH20 0xFFFFFFFFFFFFFFFFFFFFFFFFFFFFFFFFFFFFFFFF AND MUL OR SWAP1 SSTORE POP DUP4 PUSH32 0xC50D274AA09E67F4AC198AD0CD460D820E39A72EB41BCB8D6B05314D9EA60456 DUP5 DUP5 PUSH1 0x40 MLOAD PUSH2 0xC58 SWAP3 SWAP2 SWAP1 PUSH2 0x1C1D JUMP JUMPDEST PUSH1 0x40 MLOAD DUP1 SWAP2 SUB SWAP1 LOG2 POP POP POP POP JUMP JUMPDEST PUSH1 0x1 PUSH0 DUP2 SLOAD DUP1 SWAP3 SWAP2 SWAP1 PUSH2 0xC78 SWAP1 PUSH2 0x1AB1 JUMP JUMPDEST SWAP2 SWAP1 POP SSTORE POP PUSH1 0x40 MLOAD DUP1 PUSH1 0xC0 ADD PUSH1 0x40 MSTORE DUP1 PUSH1 0x1 SLOAD DUP2 MSTORE PUSH1 0x20 ADD DUP5 DUP2 MSTORE PUSH1 0x20 ADD DUP4 DUP2 MSTORE PUSH1 0x20 ADD CALLER PUSH20 0xFFFFFFFFFFFFFFFFFFFFFFFFFFFFFFFFFFFFFFFF AND DUP2 MSTORE PUSH1 0x20 ADD DUP3 DUP2 MSTORE PUSH1 0x20 ADD PUSH0 PUSH1 0x3 DUP2 GT ISZERO PUSH2 0xCD1 JUMPI PUSH2 0xCD0 PUSH2 0x1408 JUMP JUMPDEST JUMPDEST DUP2 MSTORE POP PUSH0 PUSH0 PUSH1 0x1 SLOAD DUP2 MSTORE PUSH1 0x20 ADD SWAP1 DUP2 MSTORE PUSH1 0x20 ADD PUSH0 KECCAK256 PUSH0 DUP3 ADD MLOAD DUP2 PUSH0 ADD SSTORE PUSH1 0x20 DUP3 ADD MLOAD DUP2 PUSH1 0x1 ADD SWAP1 DUP2 PUSH2 0xD03 SWAP2 SWAP1 PUSH2 0x1DE4 JUMP JUMPDEST POP PUSH1 0x40 DUP3 ADD MLOAD DUP2 PUSH1 0x2 ADD SWAP1 DUP2 PUSH2 0xD19 SWAP2 SWAP1 PUSH2 0x1DE4 JUMP JUMPDEST POP PUSH1 0x60 DUP3 ADD MLOAD DUP2 PUSH1 0x3 ADD PUSH0 PUSH2 0x100 EXP DUP2 SLOAD DUP2 PUSH20 0xFFFFFFFFFFFFFFFFFFFFFFFFFFFFFFFFFFFFFFFF MUL NOT AND SWAP1 DUP4 PUSH20 0xFFFFFFFFFFFFFFFFFFFFFFFFFFFFFFFFFFFFFFFF AND MUL OR SWAP1 SSTORE POP PUSH1 0x80 DUP3 ADD MLOAD DUP2 PUSH1 0x4 ADD SSTORE PUSH1 0xA0 DUP3 ADD MLOAD DUP2 PUSH1 0x5 ADD PUSH0 PUSH2 0x100 EXP DUP2 SLOAD DUP2 PUSH1 0xFF MUL NOT AND SWAP1 DUP4 PUSH1 0x3 DUP2 GT ISZERO PUSH2 0xD94 JUMPI PUSH2 0xD93 PUSH2 0x1408 JUMP JUMPDEST JUMPDEST MUL OR SWAP1 SSTORE POP SWAP1 POP POP PUSH1 0x1 SLOAD PUSH32 0xC50D274AA09E67F4AC198AD0CD460D820E39A72EB41BCB8D6B05314D9EA60456 PUSH0 CALLER PUSH1 0x40 MLOAD PUSH2 0xDD0 SWAP3 SWAP2 SWAP1 PUSH2 0x1C1D JUMP JUMPDEST PUSH1 0x40 MLOAD DUP1 SWAP2 SUB SWAP1 LOG2 POP POP POP JUMP JUMPDEST PUSH1 0x60 DUP1 PUSH0 PUSH0 PUSH0 PUSH0 PUSH0 PUSH0 DUP9 DUP2 MSTORE PUSH1 0x20 ADD SWAP1 DUP2 MSTORE PUSH1 0x20 ADD PUSH0 KECCAK256 PUSH1 0x40 MLOAD DUP1 PUSH1 0xC0 ADD PUSH1 0x40 MSTORE SWAP1 DUP2 PUSH0 DUP3 ADD SLOAD DUP2 MSTORE PUSH1 0x20 ADD PUSH1 0x1 DUP3 ADD DUP1 SLOAD PUSH2 0xE18 SWAP1 PUSH2 0x1B52 JUMP JUMPDEST DUP1 PUSH1 0x1F ADD PUSH1 0x20 DUP1 SWAP2 DIV MUL PUSH1 0x20 ADD PUSH1 0x40 MLOAD SWAP1 DUP2 ADD PUSH1 0x40 MSTORE DUP1 SWAP3 SWAP2 SWAP1 DUP2 DUP2 MSTORE PUSH1 0x20 ADD DUP3 DUP1 SLOAD PUSH2 0xE44 SWAP1 PUSH2 0x1B52 JUMP JUMPDEST DUP1 ISZERO PUSH2 0xE8F JUMPI DUP1 PUSH1 0x1F LT PUSH2 0xE66 JUMPI PUSH2 0x100 DUP1 DUP4 SLOAD DIV MUL DUP4 MSTORE SWAP2 PUSH1 0x20 ADD SWAP2 PUSH2 0xE8F JUMP JUMPDEST DUP3 ADD SWAP2 SWAP1 PUSH0 MSTORE PUSH1 0x20 PUSH0 KECCAK256 SWAP1 JUMPDEST DUP2 SLOAD DUP2 MSTORE SWAP1 PUSH1 0x1 ADD SWAP1 PUSH1 0x20 ADD DUP1 DUP4 GT PUSH2 0xE72 JUMPI DUP3 SWAP1 SUB PUSH1 0x1F AND DUP3 ADD SWAP2 JUMPDEST POP POP POP POP POP DUP2 MSTORE PUSH1 0x20 ADD PUSH1 0x2 DUP3 ADD DUP1 SLOAD PUSH2 0xEA8 SWAP1 PUSH2 0x1B52 JUMP JUMPDEST DUP1 PUSH1 0x1F ADD PUSH1 0x20 DUP1 SWAP2 DIV MUL PUSH1 0x20 ADD PUSH1 0x40 MLOAD SWAP1 DUP2 ADD PUSH1 0x40 MSTORE DUP1 SWAP3 SWAP2 SWAP1 DUP2 DUP2 MSTORE PUSH1 0x20 ADD DUP3 DUP1 SLOAD PUSH2 0xED4 SWAP1 PUSH2 0x1B52 JUMP JUMPDEST DUP1 ISZERO PUSH2 0xF1F JUMPI DUP1 PUSH1 0x1F LT PUSH2 0xEF6 JUMPI PUSH2 0x100 DUP1 DUP4 SLOAD DIV MUL DUP4 MSTORE SWAP2 PUSH1 0x20 ADD SWAP2 PUSH2 0xF1F JUMP JUMPDEST DUP3 ADD SWAP2 SWAP1 PUSH0 MSTORE PUSH1 0x20 PUSH0 KECCAK256 SWAP1 JUMPDEST DUP2 SLOAD DUP2 MSTORE SWAP1 PUSH1 0x1 ADD SWAP1 PUSH1 0x20 ADD DUP1 DUP4 GT PUSH2 0xF02 JUMPI DUP3 SWAP1 SUB PUSH1 0x1F AND DUP3 ADD SWAP2 JUMPDEST POP POP POP POP POP DUP2 MSTORE PUSH1 0x20 ADD PUSH1 0x3 DUP3 ADD PUSH0 SWAP1 SLOAD SWAP1 PUSH2 0x100 EXP SWAP1 DIV PUSH20 0xFFFFFFFFFFFFFFFFFFFFFFFFFFFFFFFFFFFFFFFF AND PUSH20 0xFFFFFFFFFFFFFFFFFFFFFFFFFFFFFFFFFFFFFFFF AND PUSH20 0xFFFFFFFFFFFFFFFFFFFFFFFFFFFFFFFFFFFFFFFF AND DUP2 MSTORE PUSH1 0x20 ADD PUSH1 0x4 DUP3 ADD SLOAD DUP2 MSTORE PUSH1 0x20 ADD PUSH1 0x5 DUP3 ADD PUSH0 SWAP1 SLOAD SWAP1 PUSH2 0x100 EXP SWAP1 DIV PUSH1 0xFF AND PUSH1 0x3 DUP2 GT ISZERO PUSH2 0xFAB JUMPI PUSH2 0xFAA PUSH2 0x1408 JUMP JUMPDEST JUMPDEST PUSH1 0x3 DUP2 GT ISZERO PUSH2 0xFBD JUMPI PUSH2 0xFBC PUSH2 0x1408 JUMP JUMPDEST JUMPDEST DUP2 MSTORE POP POP SWAP1 POP DUP1 PUSH1 0x20 ADD MLOAD DUP2 PUSH1 0x40 ADD MLOAD DUP3 PUSH1 0x60 ADD MLOAD DUP4 PUSH1 0x80 ADD MLOAD DUP5 PUSH1 0xA0 ADD MLOAD SWAP6 POP SWAP6 POP SWAP6 POP SWAP6 POP SWAP6 POP POP SWAP2 SWAP4 SWAP6 SWAP1 SWAP3 SWAP5 POP JUMP JUMPDEST PUSH0 PUSH1 0x20 MSTORE DUP1 PUSH0 MSTORE PUSH1 0x40 PUSH0 KECCAK256 PUSH0 SWAP2 POP SWAP1 POP DUP1 PUSH0 ADD SLOAD SWAP1 DUP1 PUSH1 0x1 ADD DUP1 SLOAD PUSH2 0x1014 SWAP1 PUSH2 0x1B52 JUMP JUMPDEST DUP1 PUSH1 0x1F ADD PUSH1 0x20 DUP1 SWAP2 DIV MUL PUSH1 0x20 ADD PUSH1 0x40 MLOAD SWAP1 DUP2 ADD PUSH1 0x40 MSTORE DUP1 SWAP3 SWAP2 SWAP1 DUP2 DUP2 MSTORE PUSH1 0x20 ADD DUP3 DUP1 SLOAD PUSH2 0x1040 SWAP1 PUSH2 0x1B52 JUMP JUMPDEST DUP1 ISZERO PUSH2 0x108B JUMPI DUP1 PUSH1 0x1F LT PUSH2 0x1062 JUMPI PUSH2 0x100 DUP1 DUP4 SLOAD DIV MUL DUP4 MSTORE SWAP2 PUSH1 0x20 ADD SWAP2 PUSH2 0x108B JUMP JUMPDEST DUP3 ADD SWAP2 SWAP1 PUSH0 MSTORE PUSH1 0x20 PUSH0 KECCAK256 SWAP1 JUMPDEST DUP2 SLOAD DUP2 MSTORE SWAP1 PUSH1 0x1 ADD SWAP1 PUSH1 0x20 ADD DUP1 DUP4 GT PUSH2 0x106E JUMPI DUP3 SWAP1 SUB PUSH1 0x1F AND DUP3 ADD SWAP2 JUMPDEST POP POP POP POP POP SWAP1 DUP1 PUSH1 0x2 ADD DUP1 SLOAD PUSH2 0x10A0 SWAP1 PUSH2 0x1B52 JUMP JUMPDEST DUP1 PUSH1 0x1F ADD PUSH1 0x20 DUP1 SWAP2 DIV MUL PUSH1 0x20 ADD PUSH1 0x40 MLOAD SWAP1 DUP2 ADD PUSH1 0x40 MSTORE DUP1 SWAP3 SWAP2 SWAP1 DUP2 DUP2 MSTORE PUSH1 0x20 ADD DUP3 DUP1 SLOAD PUSH2 0x10CC SWAP1 PUSH2 0x1B52 JUMP JUMPDEST DUP1 ISZERO PUSH2 0x1117 JUMPI DUP1 PUSH1 0x1F LT PUSH2 0x10EE JUMPI PUSH2 0x100 DUP1 DUP4 SLOAD DIV MUL DUP4 MSTORE SWAP2 PUSH1 0x20 ADD SWAP2 PUSH2 0x1117 JUMP JUMPDEST DUP3 ADD SWAP2 SWAP1 PUSH0 MSTORE PUSH1 0x20 PUSH0 KECCAK256 SWAP1 JUMPDEST DUP2 SLOAD DUP2 MSTORE SWAP1 PUSH1 0x1 ADD SWAP1 PUSH1 0x20 ADD DUP1 DUP4 GT PUSH2 0x10FA JUMPI DUP3 SWAP1 SUB PUSH1 0x1F AND DUP3 ADD SWAP2 JUMPDEST POP POP POP POP POP SWAP1 DUP1 PUSH1 0x3 ADD PUSH0 SWAP1 SLOAD SWAP1 PUSH2 0x100 EXP SWAP1 DIV PUSH20 0xFFFFFFFFFFFFFFFFFFFFFFFFFFFFFFFFFFFFFFFF AND SWAP1 DUP1 PUSH1 0x4 ADD SLOAD SWAP1 DUP1 PUSH1 0x5 ADD PUSH0 SWAP1 SLOAD SWAP1 PUSH2 0x100 EXP SWAP1 DIV PUSH1 0xFF AND SWAP1 POP DUP7 JUMP JUMPDEST PUSH0 PUSH1 0x40 MLOAD SWAP1 POP SWAP1 JUMP JUMPDEST PUSH0 PUSH0 REVERT JUMPDEST PUSH0 PUSH0 REVERT JUMPDEST PUSH0 PUSH20 0xFFFFFFFFFFFFFFFFFFFFFFFFFFFFFFFFFFFFFFFF DUP3 AND SWAP1 POP SWAP2 SWAP1 POP JUMP JUMPDEST PUSH0 PUSH2 0x1198 DUP3 PUSH2 0x116F JUMP JUMPDEST SWAP1 POP SWAP2 SWAP1 POP JUMP JUMPDEST PUSH2 0x11A8 DUP2 PUSH2 0x118E JUMP JUMPDEST DUP2 EQ PUSH2 0x11B2 JUMPI PUSH0 PUSH0 REVERT JUMPDEST POP JUMP JUMPDEST PUSH0 DUP2 CALLDATALOAD SWAP1 POP PUSH2 0x11C3 DUP2 PUSH2 0x119F JUMP JUMPDEST SWAP3 SWAP2 POP POP JUMP JUMPDEST PUSH0 PUSH1 0x20 DUP3 DUP5 SUB SLT ISZERO PUSH2 0x11DE JUMPI PUSH2 0x11DD PUSH2 0x1167 JUMP JUMPDEST JUMPDEST PUSH0 PUSH2 0x11EB DUP5 DUP3 DUP6 ADD PUSH2 0x11B5 JUMP JUMPDEST SWAP2 POP POP SWAP3 SWAP2 POP POP JUMP JUMPDEST PUSH0 DUP2 MLOAD SWAP1 POP SWAP2 SWAP1 POP JUMP JUMPDEST PUSH0 DUP3 DUP3 MSTORE PUSH1 0x20 DUP3 ADD SWAP1 POP SWAP3 SWAP2 POP POP JUMP JUMPDEST PUSH0 DUP2 SWAP1 POP PUSH1 0x20 DUP3 ADD SWAP1 POP SWAP2 SWAP1 POP JUMP JUMPDEST PUSH0 DUP2 SWAP1 POP SWAP2 SWAP1 POP JUMP JUMPDEST PUSH2 0x122F DUP2 PUSH2 0x121D JUMP JUMPDEST DUP3 MSTORE POP POP JUMP JUMPDEST PUSH0 PUSH2 0x1240 DUP4 DUP4 PUSH2 0x1226 JUMP JUMPDEST PUSH1 0x20 DUP4 ADD SWAP1 POP SWAP3 SWAP2 POP POP JUMP JUMPDEST PUSH0 PUSH1 0x20 DUP3 ADD SWAP1 POP SWAP2 SWAP1 POP JUMP JUMPDEST PUSH0 PUSH2 0x1262 DUP3 PUSH2 0x11F4 JUMP JUMPDEST PUSH2 0x126C DUP2 DUP6 PUSH2 0x11FE JUMP JUMPDEST SWAP4 POP PUSH2 0x1277 DUP4 PUSH2 0x120E JUMP JUMPDEST DUP1 PUSH0 JUMPDEST DUP4 DUP2 LT ISZERO PUSH2 0x12A7 JUMPI DUP2 MLOAD PUSH2 0x128E DUP9 DUP3 PUSH2 0x1235 JUMP JUMPDEST SWAP8 POP PUSH2 0x1299 DUP4 PUSH2 0x124C JUMP JUMPDEST SWAP3 POP POP PUSH1 0x1 DUP2 ADD SWAP1 POP PUSH2 0x127A JUMP JUMPDEST POP DUP6 SWAP4 POP POP POP POP SWAP3 SWAP2 POP POP JUMP JUMPDEST PUSH0 DUP2 MLOAD SWAP1 POP SWAP2 SWAP1 POP JUMP JUMPDEST PUSH0 DUP3 DUP3 MSTORE PUSH1 0x20 DUP3 ADD SWAP1 POP SWAP3 SWAP2 POP POP JUMP JUMPDEST PUSH0 DUP2 SWAP1 POP PUSH1 0x20 DUP3 ADD SWAP1 POP SWAP2 SWAP1 POP JUMP JUMPDEST PUSH0 DUP2 MLOAD SWAP1 POP SWAP2 SWAP1 POP JUMP JUMPDEST PUSH0 DUP3 DUP3 MSTORE PUSH1 0x20 DUP3 ADD SWAP1 POP SWAP3 SWAP2 POP POP JUMP JUMPDEST DUP3 DUP2 DUP4 MCOPY PUSH0 DUP4 DUP4 ADD MSTORE POP POP POP JUMP JUMPDEST PUSH0 PUSH1 0x1F NOT PUSH1 0x1F DUP4 ADD AND SWAP1 POP SWAP2 SWAP1 POP JUMP JUMPDEST PUSH0 PUSH2 0x131F DUP3 PUSH2 0x12DD JUMP JUMPDEST PUSH2 0x1329 DUP2 DUP6 PUSH2 0x12E7 JUMP JUMPDEST SWAP4 POP PUSH2 0x1339 DUP2 DUP6 PUSH1 0x20 DUP7 ADD PUSH2 0x12F7 JUMP JUMPDEST PUSH2 0x1342 DUP2 PUSH2 0x1305 JUMP JUMPDEST DUP5 ADD SWAP2 POP POP SWAP3 SWAP2 POP POP JUMP JUMPDEST PUSH0 PUSH2 0x1358 DUP4 DUP4 PUSH2 0x1315 JUMP JUMPDEST SWAP1 POP SWAP3 SWAP2 POP POP JUMP JUMPDEST PUSH0 PUSH1 0x20 DUP3 ADD SWAP1 POP SWAP2 SWAP1 POP JUMP JUMPDEST PUSH0 PUSH2 0x1376 DUP3 PUSH2 0x12B4 JUMP JUMPDEST PUSH2 0x1380 DUP2 DUP6 PUSH2 0x12BE JUMP JUMPDEST SWAP4 POP DUP4 PUSH1 0x20 DUP3 MUL DUP6 ADD PUSH2 0x1392 DUP6 PUSH2 0x12CE JUMP JUMPDEST DUP1 PUSH0 JUMPDEST DUP6 DUP2 LT ISZERO PUSH2 0x13CD JUMPI DUP5 DUP5 SUB DUP10 MSTORE DUP2 MLOAD PUSH2 0x13AE DUP6 DUP3 PUSH2 0x134D JUMP JUMPDEST SWAP5 POP PUSH2 0x13B9 DUP4 PUSH2 0x1360 JUMP JUMPDEST SWAP3 POP PUSH1 0x20 DUP11 ADD SWAP10 POP POP PUSH1 0x1 DUP2 ADD SWAP1 POP PUSH2 0x1395 JUMP JUMPDEST POP DUP3 SWAP8 POP DUP8 SWAP6 POP POP POP POP POP POP SWAP3 SWAP2 POP POP JUMP JUMPDEST PUSH0 DUP2 MLOAD SWAP1 POP SWAP2 SWAP1 POP JUMP JUMPDEST PUSH0 DUP3 DUP3 MSTORE PUSH1 0x20 DUP3 ADD SWAP1 POP SWAP3 SWAP2 POP POP JUMP JUMPDEST PUSH0 DUP2 SWAP1 POP PUSH1 0x20 DUP3 ADD SWAP1 POP SWAP2 SWAP1 POP JUMP JUMPDEST PUSH32 0x4E487B7100000000000000000000000000000000000000000000000000000000 PUSH0 MSTORE PUSH1 0x21 PUSH1 0x4 MSTORE PUSH1 0x24 PUSH0 REVERT JUMPDEST PUSH1 0x4 DUP2 LT PUSH2 0x1446 JUMPI PUSH2 0x1445 PUSH2 0x1408 JUMP JUMPDEST JUMPDEST POP JUMP JUMPDEST PUSH0 DUP2 SWAP1 POP PUSH2 0x1456 DUP3 PUSH2 0x1435 JUMP JUMPDEST SWAP2 SWAP1 POP JUMP JUMPDEST PUSH0 PUSH2 0x1465 DUP3 PUSH2 0x1449 JUMP JUMPDEST SWAP1 POP SWAP2 SWAP1 POP JUMP JUMPDEST PUSH2 0x1475 DUP2 PUSH2 0x145B JUMP JUMPDEST DUP3 MSTORE POP POP JUMP JUMPDEST PUSH0 PUSH2 0x1486 DUP4 DUP4 PUSH2 0x146C JUMP JUMPDEST PUSH1 0x20 DUP4 ADD SWAP1 POP SWAP3 SWAP2 POP POP JUMP JUMPDEST PUSH0 PUSH1 0x20 DUP3 ADD SWAP1 POP SWAP2 SWAP1 POP JUMP JUMPDEST PUSH0 PUSH2 0x14A8 DUP3 PUSH2 0x13DF JUMP JUMPDEST PUSH2 0x14B2 DUP2 DUP6 PUSH2 0x13E9 JUMP JUMPDEST SWAP4 POP PUSH2 0x14BD DUP4 PUSH2 0x13F9 JUMP JUMPDEST DUP1 PUSH0 JUMPDEST DUP4 DUP2 LT ISZERO PUSH2 0x14ED JUMPI DUP2 MLOAD PUSH2 0x14D4 DUP9 DUP3 PUSH2 0x147B JUMP JUMPDEST SWAP8 POP PUSH2 0x14DF DUP4 PUSH2 0x1492 JUMP JUMPDEST SWAP3 POP POP PUSH1 0x1 DUP2 ADD SWAP1 POP PUSH2 0x14C0 JUMP JUMPDEST POP DUP6 SWAP4 POP POP POP POP SWAP3 SWAP2 POP POP JUMP JUMPDEST PUSH0 PUSH1 0xA0 DUP3 ADD SWAP1 POP DUP2 DUP2 SUB PUSH0 DUP4 ADD MSTORE PUSH2 0x1512 DUP2 DUP9 PUSH2 0x1258 JUMP JUMPDEST SWAP1 POP DUP2 DUP2 SUB PUSH1 0x20 DUP4 ADD MSTORE PUSH2 0x1526 DUP2 DUP8 PUSH2 0x136C JUMP JUMPDEST SWAP1 POP DUP2 DUP2 SUB PUSH1 0x40 DUP4 ADD MSTORE PUSH2 0x153A DUP2 DUP7 PUSH2 0x136C JUMP JUMPDEST SWAP1 POP DUP2 DUP2 SUB PUSH1 0x60 DUP4 ADD MSTORE PUSH2 0x154E DUP2 DUP6 PUSH2 0x1258 JUMP JUMPDEST SWAP1 POP DUP2 DUP2 SUB PUSH1 0x80 DUP4 ADD MSTORE PUSH2 0x1562 DUP2 DUP5 PUSH2 0x149E JUMP JUMPDEST SWAP1 POP SWAP7 SWAP6 POP POP POP POP POP POP JUMP JUMPDEST PUSH0 DUP2 MLOAD SWAP1 POP SWAP2 SWAP1 POP JUMP JUMPDEST PUSH0 DUP3 DUP3 MSTORE PUSH1 0x20 DUP3 ADD SWAP1 POP SWAP3 SWAP2 POP POP JUMP JUMPDEST PUSH0 DUP2 SWAP1 POP PUSH1 0x20 DUP3 ADD SWAP1 POP SWAP2 SWAP1 POP JUMP JUMPDEST PUSH2 0x15A0 DUP2 PUSH2 0x118E JUMP JUMPDEST DUP3 MSTORE POP POP JUMP JUMPDEST PUSH0 PUSH2 0x15B1 DUP4 DUP4 PUSH2 0x1597 JUMP JUMPDEST PUSH1 0x20 DUP4 ADD SWAP1 POP SWAP3 SWAP2 POP POP JUMP JUMPDEST PUSH0 PUSH1 0x20 DUP3 ADD SWAP1 POP SWAP2 SWAP1 POP JUMP JUMPDEST PUSH0 PUSH2 0x15D3 DUP3 PUSH2 0x156E JUMP JUMPDEST PUSH2 0x15DD DUP2 DUP6 PUSH2 0x1578 JUMP JUMPDEST SWAP4 POP PUSH2 0x15E8 DUP4 PUSH2 0x1588 JUMP JUMPDEST DUP1 PUSH0 JUMPDEST DUP4 DUP2 LT ISZERO PUSH2 0x1618 JUMPI DUP2 MLOAD PUSH2 0x15FF DUP9 DUP3 PUSH2 0x15A6 JUMP JUMPDEST SWAP8 POP PUSH2 0x160A DUP4 PUSH2 0x15BD JUMP JUMPDEST SWAP3 POP POP PUSH1 0x1 DUP2 ADD SWAP1 POP PUSH2 0x15EB JUMP JUMPDEST POP DUP6 SWAP4 POP POP POP POP SWAP3 SWAP2 POP POP JUMP JUMPDEST PUSH0 PUSH1 0xC0 DUP3 ADD SWAP1 POP DUP2 DUP2 SUB PUSH0 DUP4 ADD MSTORE PUSH2 0x163D DUP2 DUP10 PUSH2 0x1258 JUMP JUMPDEST SWAP1 POP DUP2 DUP2 SUB PUSH1 0x20 DUP4 ADD MSTORE PUSH2 0x1651 DUP2 DUP9 PUSH2 0x136C JUMP JUMPDEST SWAP1 POP DUP2 DUP2 SUB PUSH1 0x40 DUP4 ADD MSTORE PUSH2 0x1665 DUP2 DUP8 PUSH2 0x136C JUMP JUMPDEST SWAP1 POP DUP2 DUP2 SUB PUSH1 0x60 DUP4 ADD MSTORE PUSH2 0x1679 DUP2 DUP7 PUSH2 0x1258 JUMP JUMPDEST SWAP1 POP DUP2 DUP2 SUB PUSH1 0x80 DUP4 ADD MSTORE PUSH2 0x168D DUP2 DUP6 PUSH2 0x149E JUMP JUMPDEST SWAP1 POP DUP2 DUP2 SUB PUSH1 0xA0 DUP4 ADD MSTORE PUSH2 0x16A1 DUP2 DUP5 PUSH2 0x15C9 JUMP JUMPDEST SWAP1 POP SWAP8 SWAP7 POP POP POP POP POP POP POP JUMP JUMPDEST PUSH2 0x16B7 DUP2 PUSH2 0x121D JUMP JUMPDEST DUP3 MSTORE POP POP JUMP JUMPDEST PUSH0 PUSH1 0x20 DUP3 ADD SWAP1 POP PUSH2 0x16D0 PUSH0 DUP4 ADD DUP5 PUSH2 0x16AE JUMP JUMPDEST SWAP3 SWAP2 POP POP JUMP JUMPDEST PUSH2 0x16DF DUP2 PUSH2 0x121D JUMP JUMPDEST DUP2 EQ PUSH2 0x16E9 JUMPI PUSH0 PUSH0 REVERT JUMPDEST POP JUMP JUMPDEST PUSH0 DUP2 CALLDATALOAD SWAP1 POP PUSH2 0x16FA DUP2 PUSH2 0x16D6 JUMP JUMPDEST SWAP3 SWAP2 POP POP JUMP JUMPDEST PUSH1 0x4 DUP2 LT PUSH2 0x170C JUMPI PUSH0 PUSH0 REVERT JUMPDEST POP JUMP JUMPDEST PUSH0 DUP2 CALLDATALOAD SWAP1 POP PUSH2 0x171D DUP2 PUSH2 0x1700 JUMP JUMPDEST SWAP3 SWAP2 POP POP JUMP JUMPDEST PUSH0 PUSH0 PUSH0 PUSH1 0x60 DUP5 DUP7 SUB SLT ISZERO PUSH2 0x173A JUMPI PUSH2 0x1739 PUSH2 0x1167 JUMP JUMPDEST JUMPDEST PUSH0 PUSH2 0x1747 DUP7 DUP3 DUP8 ADD PUSH2 0x16EC JUMP JUMPDEST SWAP4 POP POP PUSH1 0x20 PUSH2 0x1758 DUP7 DUP3 DUP8 ADD PUSH2 0x170F JUMP JUMPDEST SWAP3 POP POP PUSH1 0x40 PUSH2 0x1769 DUP7 DUP3 DUP8 ADD PUSH2 0x11B5 JUMP JUMPDEST SWAP2 POP POP SWAP3 POP SWAP3 POP SWAP3 JUMP JUMPDEST PUSH0 PUSH0 REVERT JUMPDEST PUSH0 PUSH0 REVERT JUMPDEST PUSH32 0x4E487B7100000000000000000000000000000000000000000000000000000000 PUSH0 MSTORE PUSH1 0x41 PUSH1 0x4 MSTORE PUSH1 0x24 PUSH0 REVERT JUMPDEST PUSH2 0x17B1 DUP3 PUSH2 0x1305 JUMP JUMPDEST DUP2 ADD DUP2 DUP2 LT PUSH8 0xFFFFFFFFFFFFFFFF DUP3 GT OR ISZERO PUSH2 0x17D0 JUMPI PUSH2 0x17CF PUSH2 0x177B JUMP JUMPDEST JUMPDEST DUP1 PUSH1 0x40 MSTORE POP POP POP JUMP JUMPDEST PUSH0 PUSH2 0x17E2 PUSH2 0x115E JUMP JUMPDEST SWAP1 POP PUSH2 0x17EE DUP3 DUP3 PUSH2 0x17A8 JUMP JUMPDEST SWAP2 SWAP1 POP JUMP JUMPDEST PUSH0 PUSH8 0xFFFFFFFFFFFFFFFF DUP3 GT ISZERO PUSH2 0x180D JUMPI PUSH2 0x180C PUSH2 0x177B JUMP JUMPDEST JUMPDEST PUSH2 0x1816 DUP3 PUSH2 0x1305 JUMP JUMPDEST SWAP1 POP PUSH1 0x20 DUP2 ADD SWAP1 POP SWAP2 SWAP1 POP JUMP JUMPDEST DUP3 DUP2 DUP4 CALLDATACOPY PUSH0 DUP4 DUP4 ADD MSTORE POP POP POP JUMP JUMPDEST PUSH0 PUSH2 0x1843 PUSH2 0x183E DUP5 PUSH2 0x17F3 JUMP JUMPDEST PUSH2 0x17D9 JUMP JUMPDEST SWAP1 POP DUP3 DUP2 MSTORE PUSH1 0x20 DUP2 ADD DUP5 DUP5 DUP5 ADD GT ISZERO PUSH2 0x185F JUMPI PUSH2 0x185E PUSH2 0x1777 JUMP JUMPDEST JUMPDEST PUSH2 0x186A DUP5 DUP3 DUP6 PUSH2 0x1823 JUMP JUMPDEST POP SWAP4 SWAP3 POP POP POP JUMP JUMPDEST PUSH0 DUP3 PUSH1 0x1F DUP4 ADD SLT PUSH2 0x1886 JUMPI PUSH2 0x1885 PUSH2 0x1773 JUMP JUMPDEST JUMPDEST DUP2 CALLDATALOAD PUSH2 0x1896 DUP5 DUP3 PUSH1 0x20 DUP7 ADD PUSH2 0x1831 JUMP JUMPDEST SWAP2 POP POP SWAP3 SWAP2 POP POP JUMP JUMPDEST PUSH0 PUSH0 PUSH0 PUSH1 0x60 DUP5 DUP7 SUB SLT ISZERO PUSH2 0x18B6 JUMPI PUSH2 0x18B5 PUSH2 0x1167 JUMP JUMPDEST JUMPDEST PUSH0 DUP5 ADD CALLDATALOAD PUSH8 0xFFFFFFFFFFFFFFFF DUP2 GT ISZERO PUSH2 0x18D3 JUMPI PUSH2 0x18D2 PUSH2 0x116B JUMP JUMPDEST JUMPDEST PUSH2 0x18DF DUP7 DUP3 DUP8 ADD PUSH2 0x1872 JUMP JUMPDEST SWAP4 POP POP PUSH1 0x20 DUP5 ADD CALLDATALOAD PUSH8 0xFFFFFFFFFFFFFFFF DUP2 GT ISZERO PUSH2 0x1900 JUMPI PUSH2 0x18FF PUSH2 0x116B JUMP JUMPDEST JUMPDEST PUSH2 0x190C DUP7 DUP3 DUP8 ADD PUSH2 0x1872 JUMP JUMPDEST SWAP3 POP POP PUSH1 0x40 PUSH2 0x191D DUP7 DUP3 DUP8 ADD PUSH2 0x16EC JUMP JUMPDEST SWAP2 POP POP SWAP3 POP SWAP3 POP SWAP3 JUMP JUMPDEST PUSH0 PUSH1 0x20 DUP3 DUP5 SUB SLT ISZERO PUSH2 0x193C JUMPI PUSH2 0x193B PUSH2 0x1167 JUMP JUMPDEST JUMPDEST PUSH0 PUSH2 0x1949 DUP5 DUP3 DUP6 ADD PUSH2 0x16EC JUMP JUMPDEST SWAP2 POP POP SWAP3 SWAP2 POP POP JUMP JUMPDEST PUSH0 DUP3 DUP3 MSTORE PUSH1 0x20 DUP3 ADD SWAP1 POP SWAP3 SWAP2 POP POP JUMP JUMPDEST PUSH0 PUSH2 0x196C DUP3 PUSH2 0x12DD JUMP JUMPDEST PUSH2 0x1976 DUP2 DUP6 PUSH2 0x1952 JUMP JUMPDEST SWAP4 POP PUSH2 0x1986 DUP2 DUP6 PUSH1 0x20 DUP7 ADD PUSH2 0x12F7 JUMP JUMPDEST PUSH2 0x198F DUP2 PUSH2 0x1305 JUMP JUMPDEST DUP5 ADD SWAP2 POP POP SWAP3 SWAP2 POP POP JUMP JUMPDEST PUSH2 0x19A3 DUP2 PUSH2 0x118E JUMP JUMPDEST DUP3 MSTORE POP POP JUMP JUMPDEST PUSH2 0x19B2 DUP2 PUSH2 0x145B JUMP JUMPDEST DUP3 MSTORE POP POP JUMP JUMPDEST PUSH0 PUSH1 0xA0 DUP3 ADD SWAP1 POP DUP2 DUP2 SUB PUSH0 DUP4 ADD MSTORE PUSH2 0x19D0 DUP2 DUP9 PUSH2 0x1962 JUMP JUMPDEST SWAP1 POP DUP2 DUP2 SUB PUSH1 0x20 DUP4 ADD MSTORE PUSH2 0x19E4 DUP2 DUP8 PUSH2 0x1962 JUMP JUMPDEST SWAP1 POP PUSH2 0x19F3 PUSH1 0x40 DUP4 ADD DUP7 PUSH2 0x199A JUMP JUMPDEST PUSH2 0x1A00 PUSH1 0x60 DUP4 ADD DUP6 PUSH2 0x16AE JUMP JUMPDEST PUSH2 0x1A0D PUSH1 0x80 DUP4 ADD DUP5 PUSH2 0x19A9 JUMP JUMPDEST SWAP7 SWAP6 POP POP POP POP POP POP JUMP JUMPDEST PUSH0 PUSH1 0xC0 DUP3 ADD SWAP1 POP PUSH2 0x1A2A PUSH0 DUP4 ADD DUP10 PUSH2 0x16AE JUMP JUMPDEST DUP2 DUP2 SUB PUSH1 0x20 DUP4 ADD MSTORE PUSH2 0x1A3C DUP2 DUP9 PUSH2 0x1962 JUMP JUMPDEST SWAP1 POP DUP2 DUP2 SUB PUSH1 0x40 DUP4 ADD MSTORE PUSH2 0x1A50 DUP2 DUP8 PUSH2 0x1962 JUMP JUMPDEST SWAP1 POP PUSH2 0x1A5F PUSH1 0x60 DUP4 ADD DUP7 PUSH2 0x199A JUMP JUMPDEST PUSH2 0x1A6C PUSH1 0x80 DUP4 ADD DUP6 PUSH2 0x16AE JUMP JUMPDEST PUSH2 0x1A79 PUSH1 0xA0 DUP4 ADD DUP5 PUSH2 0x19A9 JUMP JUMPDEST SWAP8 SWAP7 POP POP POP POP POP POP POP JUMP JUMPDEST PUSH32 0x4E487B7100000000000000000000000000000000000000000000000000000000 PUSH0 MSTORE PUSH1 0x11 PUSH1 0x4 MSTORE PUSH1 0x24 PUSH0 REVERT JUMPDEST PUSH0 PUSH2 0x1ABB DUP3 PUSH2 0x121D JUMP JUMPDEST SWAP2 POP PUSH32 0xFFFFFFFFFFFFFFFFFFFFFFFFFFFFFFFFFFFFFFFFFFFFFFFFFFFFFFFFFFFFFFFF DUP3 SUB PUSH2 0x1AED JUMPI PUSH2 0x1AEC PUSH2 0x1A84 JUMP JUMPDEST JUMPDEST PUSH1 0x1 DUP3 ADD SWAP1 POP SWAP2 SWAP1 POP JUMP JUMPDEST PUSH32 0x4E487B7100000000000000000000000000000000000000000000000000000000 PUSH0 MSTORE PUSH1 0x32 PUSH1 0x4 MSTORE PUSH1 0x24 PUSH0 REVERT JUMPDEST PUSH32 0x4E487B7100000000000000000000000000000000000000000000000000000000 PUSH0 MSTORE PUSH1 0x22 PUSH1 0x4 MSTORE PUSH1 0x24 PUSH0 REVERT JUMPDEST PUSH0 PUSH1 0x2 DUP3 DIV SWAP1 POP PUSH1 0x1 DUP3 AND DUP1 PUSH2 0x1B69 JUMPI PUSH1 0x7F DUP3 AND SWAP2 POP JUMPDEST PUSH1 0x20 DUP3 LT DUP2 SUB PUSH2 0x1B7C JUMPI PUSH2 0x1B7B PUSH2 0x1B25 JUMP JUMPDEST JUMPDEST POP SWAP2 SWAP1 POP JUMP JUMPDEST PUSH0 PUSH2 0x1B8C DUP3 PUSH2 0x121D JUMP JUMPDEST SWAP2 POP PUSH2 0x1B97 DUP4 PUSH2 0x121D JUMP JUMPDEST SWAP3 POP DUP3 DUP3 SUB SWAP1 POP DUP2 DUP2 GT ISZERO PUSH2 0x1BAF JUMPI PUSH2 0x1BAE PUSH2 0x1A84 JUMP JUMPDEST JUMPDEST SWAP3 SWAP2 POP POP JUMP JUMPDEST PUSH32 0x496E76616C6964207374616765207472616E736974696F6E0000000000000000 PUSH0 DUP3 ADD MSTORE POP JUMP JUMPDEST PUSH0 PUSH2 0x1BE9 PUSH1 0x18 DUP4 PUSH2 0x1952 JUMP JUMPDEST SWAP2 POP PUSH2 0x1BF4 DUP3 PUSH2 0x1BB5 JUMP JUMPDEST PUSH1 0x20 DUP3 ADD SWAP1 POP SWAP2 SWAP1 POP JUMP JUMPDEST PUSH0 PUSH1 0x20 DUP3 ADD SWAP1 POP DUP2 DUP2 SUB PUSH0 DUP4 ADD MSTORE PUSH2 0x1C16 DUP2 PUSH2 0x1BDD JUMP JUMPDEST SWAP1 POP SWAP2 SWAP1 POP JUMP JUMPDEST PUSH0 PUSH1 0x40 DUP3 ADD SWAP1 POP PUSH2 0x1C30 PUSH0 DUP4 ADD DUP6 PUSH2 0x19A9 JUMP JUMPDEST PUSH2 0x1C3D PUSH1 0x20 DUP4 ADD DUP5 PUSH2 0x199A JUMP JUMPDEST SWAP4 SWAP3 POP POP POP JUMP JUMPDEST PUSH0 DUP2 SWAP1 POP DUP2 PUSH0 MSTORE PUSH1 0x20 PUSH0 KECCAK256 SWAP1 POP SWAP2 SWAP1 POP JUMP JUMPDEST PUSH0 PUSH1 0x20 PUSH1 0x1F DUP4 ADD DIV SWAP1 POP SWAP2 SWAP1 POP JUMP JUMPDEST PUSH0 DUP3 DUP3 SHL SWAP1 POP SWAP3 SWAP2 POP POP JUMP JUMPDEST PUSH0 PUSH1 0x8 DUP4 MUL PUSH2 0x1CA0 PUSH32 0xFFFFFFFFFFFFFFFFFFFFFFFFFFFFFFFFFFFFFFFFFFFFFFFFFFFFFFFFFFFFFFFF DUP3 PUSH2 0x1C65 JUMP JUMPDEST PUSH2 0x1CAA DUP7 DUP4 PUSH2 0x1C65 JUMP JUMPDEST SWAP6 POP DUP1 NOT DUP5 AND SWAP4 POP DUP1 DUP7 AND DUP5 OR SWAP3 POP POP POP SWAP4 SWAP3 POP POP POP JUMP JUMPDEST PUSH0 DUP2 SWAP1 POP SWAP2 SWAP1 POP JUMP JUMPDEST PUSH0 PUSH2 0x1CE5 PUSH2 0x1CE0 PUSH2 0x1CDB DUP5 PUSH2 0x121D JUMP JUMPDEST PUSH2 0x1CC2 JUMP JUMPDEST PUSH2 0x121D JUMP JUMPDEST SWAP1 POP SWAP2 SWAP1 POP JUMP JUMPDEST PUSH0 DUP2 SWAP1 POP SWAP2 SWAP1 POP JUMP JUMPDEST PUSH2 0x1CFE DUP4 PUSH2 0x1CCB JUMP JUMPDEST PUSH2 0x1D12 PUSH2 0x1D0A DUP3 PUSH2 0x1CEC JUMP JUMPDEST DUP5 DUP5 SLOAD PUSH2 0x1C71 JUMP JUMPDEST DUP3 SSTORE POP POP POP POP JUMP JUMPDEST PUSH0 PUSH0 SWAP1 POP SWAP1 JUMP JUMPDEST PUSH2 0x1D29 PUSH2 0x1D1A JUMP JUMPDEST PUSH2 0x1D34 DUP2 DUP5 DUP5 PUSH2 0x1CF5 JUMP JUMPDEST POP POP POP JUMP JUMPDEST JUMPDEST DUP2 DUP2 LT ISZERO PUSH2 0x1D57 JUMPI PUSH2 0x1D4C PUSH0 DUP3 PUSH2 0x1D21 JUMP JUMPDEST PUSH1 0x1 DUP2 ADD SWAP1 POP PUSH2 0x1D3A JUMP JUMPDEST POP POP JUMP JUMPDEST PUSH1 0x1F DUP3 GT ISZERO PUSH2 0x1D9C JUMPI PUSH2 0x1D6D DUP2 PUSH2 0x1C44 JUMP JUMPDEST PUSH2 0x1D76 DUP5 PUSH2 0x1C56 JUMP JUMPDEST DUP2 ADD PUSH1 0x20 DUP6 LT ISZERO PUSH2 0x1D85 JUMPI DUP2 SWAP1 POP JUMPDEST PUSH2 0x1D99 PUSH2 0x1D91 DUP6 PUSH2 0x1C56 JUMP JUMPDEST DUP4 ADD DUP3 PUSH2 0x1D39 JUMP JUMPDEST POP POP JUMPDEST POP POP POP JUMP JUMPDEST PUSH0 DUP3 DUP3 SHR SWAP1 POP SWAP3 SWAP2 POP POP JUMP JUMPDEST PUSH0 PUSH2 0x1DBC PUSH0 NOT DUP5 PUSH1 0x8 MUL PUSH2 0x1DA1 JUMP JUMPDEST NOT DUP1 DUP4 AND SWAP2 POP POP SWAP3 SWAP2 POP POP JUMP JUMPDEST PUSH0 PUSH2 0x1DD4 DUP4 DUP4 PUSH2 0x1DAD JUMP JUMPDEST SWAP2 POP DUP3 PUSH1 0x2 MUL DUP3 OR SWAP1 POP SWAP3 SWAP2 POP POP JUMP JUMPDEST PUSH2 0x1DED DUP3 PUSH2 0x12DD JUMP JUMPDEST PUSH8 0xFFFFFFFFFFFFFFFF DUP2 GT ISZERO PUSH2 0x1E06 JUMPI PUSH2 0x1E05 PUSH2 0x177B JUMP JUMPDEST JUMPDEST PUSH2 0x1E10 DUP3 SLOAD PUSH2 0x1B52 JUMP JUMPDEST PUSH2 0x1E1B DUP3 DUP3 DUP6 PUSH2 0x1D5B JUMP JUMPDEST PUSH0 PUSH1 0x20 SWAP1 POP PUSH1 0x1F DUP4 GT PUSH1 0x1 DUP2 EQ PUSH2 0x1E4C JUMPI PUSH0 DUP5 ISZERO PUSH2 0x1E3A JUMPI DUP3 DUP8 ADD MLOAD SWAP1 POP JUMPDEST PUSH2 0x1E44 DUP6 DUP3 PUSH2 0x1DC9 JUMP JUMPDEST DUP7 SSTORE POP PUSH2 0x1EAB JUMP JUMPDEST PUSH1 0x1F NOT DUP5 AND PUSH2 0x1E5A DUP7 PUSH2 0x1C44 JUMP JUMPDEST PUSH0 JUMPDEST DUP3 DUP2 LT ISZERO PUSH2 0x1E81 JUMPI DUP5 DUP10 ADD MLOAD DUP3 SSTORE PUSH1 0x1 DUP3 ADD SWAP2 POP PUSH1 0x20 DUP6 ADD SWAP5 POP PUSH1 0x20 DUP2 ADD SWAP1 POP PUSH2 0x1E5C JUMP JUMPDEST DUP7 DUP4 LT ISZERO PUSH2 0x1E9E JUMPI DUP5 DUP10 ADD MLOAD PUSH2 0x1E9A PUSH1 0x1F DUP10 AND DUP3 PUSH2 0x1DAD JUMP JUMPDEST DUP4 SSTORE POP JUMPDEST PUSH1 0x1 PUSH1 0x2 DUP9 MUL ADD DUP9 SSTORE POP POP POP JUMPDEST POP POP POP POP POP POP JUMP INVALID LOG2 PUSH5 0x6970667358 0x22 SLT KECCAK256 PUSH21 0xE4C5F7CE15D58F05CA6A6331C8F0F7D61853B6822D 0x2C PUSH28 0xAEE4A068383E712364736F6C634300081E0033000000000000000000 "
		},
		"gasEstimates": {
			"creation": {
				"codeDepositCost": "1582600",
				"executionCost": "1657",
				"totalCost": "1584257"
			},
			"external": {
				"addDrug(string,string,uint256)": "infinite",
				"drugCount()": "2470",
				"drugs(uint256)": "infinite",
				"getAllDrugs()": "infinite",
				"getDrug(uint256)": "infinite",
				"getDrugsByOwner(address)": "infinite",
				"transferDrug(uint256,uint8,address)": "infinite"
			}
		},
		"methodIdentifiers": {
			"addDrug(string,string,uint256)": "91c4fb82",
			"drugCount()": "7577ca37",
			"drugs(uint256)": "fca5e61e",
			"getAllDrugs()": "5425c289",
			"getDrug(uint256)": "b8840d3d",
			"getDrugsByOwner(address)": "25ad876c",
			"transferDrug(uint256,uint8,address)": "80e15ad4"
		}
	},
	"abi": [
		{
			"anonymous": false,
			"inputs": [
				{
					"indexed": true,
					"internalType": "uint256",
					"name": "id",
					"type": "uint256"
				},
				{
					"indexed": false,
					"internalType": "enum PharmaSupply.Stage",
					"name": "newStage",
					"type": "uint8"
				},
				{
					"indexed": false,
					"internalType": "address",
					"name": "owner",
					"type": "address"
				}
			],
			"name": "StageChanged",
			"type": "event"
		},
		{
			"inputs": [
				{
					"internalType": "string",
					"name": "_name",
					"type": "string"
				},
				{
					"internalType": "string",
					"name": "_batch",
					"type": "string"
				},
				{
					"internalType": "uint256",
					"name": "_price",
					"type": "uint256"
				}
			],
			"name": "addDrug",
			"outputs": [],
			"stateMutability": "nonpayable",
			"type": "function"
		},
		{
			"inputs": [],
			"name": "drugCount",
			"outputs": [
				{
					"internalType": "uint256",
					"name": "",
					"type": "uint256"
				}
			],
			"stateMutability": "view",
			"type": "function"
		},
		{
			"inputs": [
				{
					"internalType": "uint256",
					"name": "",
					"type": "uint256"
				}
			],
			"name": "drugs",
			"outputs": [
				{
					"internalType": "uint256",
					"name": "id",
					"type": "uint256"
				},
				{
					"internalType": "string",
					"name": "name",
					"type": "string"
				},
				{
					"internalType": "string",
					"name": "batch",
					"type": "string"
				},
				{
					"internalType": "address",
					"name": "currentOwner",
					"type": "address"
				},
				{
					"internalType": "uint256",
					"name": "price",
					"type": "uint256"
				},
				{
					"internalType": "enum PharmaSupply.Stage",
					"name": "stage",
					"type": "uint8"
				}
			],
			"stateMutability": "view",
			"type": "function"
		},
		{
			"inputs": [],
			"name": "getAllDrugs",
			"outputs": [
				{
					"internalType": "uint256[]",
					"name": "ids",
					"type": "uint256[]"
				},
				{
					"internalType": "string[]",
					"name": "names",
					"type": "string[]"
				},
				{
					"internalType": "string[]",
					"name": "batches",
					"type": "string[]"
				},
				{
					"internalType": "uint256[]",
					"name": "prices",
					"type": "uint256[]"
				},
				{
					"internalType": "enum PharmaSupply.Stage[]",
					"name": "stages",
					"type": "uint8[]"
				},
				{
					"internalType": "address[]",
					"name": "owners",
					"type": "address[]"
				}
			],
			"stateMutability": "view",
			"type": "function"
		},
		{
			"inputs": [
				{
					"internalType": "uint256",
					"name": "_id",
					"type": "uint256"
				}
			],
			"name": "getDrug",
			"outputs": [
				{
					"internalType": "string",
					"name": "name",
					"type": "string"
				},
				{
					"internalType": "string",
					"name": "batch",
					"type": "string"
				},
				{
					"internalType": "address",
					"name": "currentOwner",
					"type": "address"
				},
				{
					"internalType": "uint256",
					"name": "price",
					"type": "uint256"
				},
				{
					"internalType": "enum PharmaSupply.Stage",
					"name": "stage",
					"type": "uint8"
				}
			],
			"stateMutability": "view",
			"type": "function"
		},
		{
			"inputs": [
				{
					"internalType": "address",
					"name": "_owner",
					"type": "address"
				}
			],
			"name": "getDrugsByOwner",
			"outputs": [
				{
					"internalType": "uint256[]",
					"name": "ids",
					"type": "uint256[]"
				},
				{
					"internalType": "string[]",
					"name": "names",
					"type": "string[]"
				},
				{
					"internalType": "string[]",
					"name": "batches",
					"type": "string[]"
				},
				{
					"internalType": "uint256[]",
					"name": "prices",
					"type": "uint256[]"
				},
				{
					"internalType": "enum PharmaSupply.Stage[]",
					"name": "stages",
					"type": "uint8[]"
				}
			],
			"stateMutability": "view",
			"type": "function"
		},
		{
			"inputs": [
				{
					"internalType": "uint256",
					"name": "_id",
					"type": "uint256"
				},
				{
					"internalType": "enum PharmaSupply.Stage",
					"name": "_nextStage",
					"type": "uint8"
				},
				{
					"internalType": "address",
					"name": "_to",
					"type": "address"
				}
			],
			"name": "transferDrug",
			"outputs": [],
			"stateMutability": "nonpayable",
			"type": "function"
		}
	]
}